{
  "contractName": "Voting",
  "abi": [
    {
      "inputs": [],
      "stateMutability": "nonpayable",
      "type": "constructor"
    },
    {
      "inputs": [
        {
          "internalType": "uint256",
          "name": "",
          "type": "uint256"
        }
      ],
      "name": "candidates",
      "outputs": [
        {
          "internalType": "string",
          "name": "id",
          "type": "string"
        },
        {
          "internalType": "string",
          "name": "name",
          "type": "string"
        },
        {
          "internalType": "uint256",
          "name": "voteCount",
          "type": "uint256"
        }
      ],
      "stateMutability": "view",
      "type": "function"
    },
    {
      "inputs": [
        {
          "internalType": "uint256",
          "name": "",
          "type": "uint256"
        }
      ],
      "name": "elections",
      "outputs": [
        {
          "internalType": "string",
          "name": "id",
          "type": "string"
        },
        {
          "internalType": "uint256",
          "name": "votes",
          "type": "uint256"
        }
      ],
      "stateMutability": "view",
      "type": "function"
    },
    {
      "inputs": [],
      "name": "isAdmin",
      "outputs": [
        {
          "internalType": "bool",
          "name": "",
          "type": "bool"
        }
      ],
      "stateMutability": "view",
      "type": "function"
    },
    {
      "inputs": [],
      "name": "isVoter",
      "outputs": [
        {
          "internalType": "bool",
          "name": "",
          "type": "bool"
        }
      ],
      "stateMutability": "view",
      "type": "function"
    },
    {
      "inputs": [
        {
          "internalType": "string",
          "name": "pwd",
          "type": "string"
        }
      ],
      "name": "adminLogin",
      "outputs": [
        {
          "internalType": "int256",
          "name": "",
          "type": "int256"
        }
      ],
      "stateMutability": "view",
      "type": "function"
    },
    {
      "inputs": [
        {
          "internalType": "string",
          "name": "id",
          "type": "string"
        }
      ],
      "name": "addElection",
      "outputs": [],
      "stateMutability": "nonpayable",
      "type": "function"
    },
    {
      "inputs": [
        {
          "internalType": "string",
          "name": "eId",
          "type": "string"
        }
      ],
      "name": "getElection",
      "outputs": [
        {
          "components": [
            {
              "internalType": "string",
              "name": "id",
              "type": "string"
            },
            {
              "internalType": "string",
              "name": "name",
              "type": "string"
            },
            {
              "internalType": "uint256",
              "name": "voteCount",
              "type": "uint256"
            }
          ],
          "internalType": "struct Voting.Candidate[]",
          "name": "",
          "type": "tuple[]"
        },
        {
          "internalType": "address[]",
          "name": "",
          "type": "address[]"
        },
        {
          "internalType": "uint256",
          "name": "",
          "type": "uint256"
        }
      ],
      "stateMutability": "view",
      "type": "function"
    },
    {
      "inputs": [
        {
          "internalType": "string",
          "name": "nationalId",
          "type": "string"
        },
        {
          "internalType": "string",
          "name": "pwd",
          "type": "string"
        }
      ],
      "name": "addUser",
      "outputs": [],
      "stateMutability": "nonpayable",
      "type": "function"
    },
    {
      "inputs": [
        {
          "internalType": "address",
          "name": "_voter",
          "type": "address"
        }
      ],
      "name": "verifyUser",
      "outputs": [],
      "stateMutability": "nonpayable",
      "type": "function"
    },
    {
      "inputs": [
        {
          "internalType": "string",
          "name": "nationalId",
          "type": "string"
        },
        {
          "internalType": "string",
          "name": "pwd",
          "type": "string"
        }
      ],
      "name": "login",
      "outputs": [
        {
          "components": [
            {
              "internalType": "address",
              "name": "key",
              "type": "address"
            },
            {
              "internalType": "string",
              "name": "nationalId",
              "type": "string"
            },
            {
              "internalType": "string",
              "name": "pwd",
              "type": "string"
            },
            {
              "internalType": "uint256",
              "name": "age",
              "type": "uint256"
            },
            {
              "internalType": "bool",
              "name": "isActive",
              "type": "bool"
            }
          ],
          "internalType": "struct Voting.User",
          "name": "",
          "type": "tuple"
        }
      ],
      "stateMutability": "view",
      "type": "function"
    },
    {
      "inputs": [],
      "name": "getUsers",
      "outputs": [
        {
          "components": [
            {
              "internalType": "address",
              "name": "key",
              "type": "address"
            },
            {
              "internalType": "string",
              "name": "nationalId",
              "type": "string"
            },
            {
              "internalType": "string",
              "name": "pwd",
              "type": "string"
            },
            {
              "internalType": "uint256",
              "name": "age",
              "type": "uint256"
            },
            {
              "internalType": "bool",
              "name": "isActive",
              "type": "bool"
            }
          ],
          "internalType": "struct Voting.User[]",
          "name": "",
          "type": "tuple[]"
        }
      ],
      "stateMutability": "view",
      "type": "function"
    },
    {
      "inputs": [
        {
          "internalType": "string",
          "name": "id",
          "type": "string"
        },
        {
          "internalType": "string",
          "name": "name",
          "type": "string"
        },
        {
          "internalType": "string",
          "name": "eId",
          "type": "string"
        }
      ],
      "name": "addCandidate",
      "outputs": [],
      "stateMutability": "nonpayable",
      "type": "function"
    },
    {
      "inputs": [],
      "name": "getCandidates",
      "outputs": [
        {
          "components": [
            {
              "internalType": "string",
              "name": "id",
              "type": "string"
            },
            {
              "internalType": "string",
              "name": "name",
              "type": "string"
            },
            {
              "internalType": "uint256",
              "name": "voteCount",
              "type": "uint256"
            }
          ],
          "internalType": "struct Voting.Candidate[]",
          "name": "",
          "type": "tuple[]"
        }
      ],
      "stateMutability": "view",
      "type": "function"
    },
    {
      "inputs": [
        {
          "internalType": "string",
          "name": "id",
          "type": "string"
        }
      ],
      "name": "getCandidateVotes",
      "outputs": [
        {
          "internalType": "uint256",
          "name": "",
          "type": "uint256"
        }
      ],
      "stateMutability": "view",
      "type": "function"
    },
    {
      "inputs": [
        {
          "internalType": "string",
          "name": "cId",
          "type": "string"
        },
        {
          "internalType": "string",
          "name": "eId",
          "type": "string"
        },
        {
          "internalType": "uint256",
          "name": "diferenciaAnios",
          "type": "uint256"
        }
      ],
      "name": "vote",
      "outputs": [],
      "stateMutability": "nonpayable",
      "type": "function"
    },
    {
      "inputs": [
        {
          "internalType": "string",
          "name": "_eId",
          "type": "string"
        }
      ],
      "name": "getResult",
      "outputs": [
        {
          "components": [
            {
              "internalType": "string",
              "name": "id",
              "type": "string"
            },
            {
              "internalType": "string",
              "name": "name",
              "type": "string"
            },
            {
              "internalType": "uint256",
              "name": "voteCount",
              "type": "uint256"
            }
          ],
          "internalType": "struct Voting.Candidate[]",
          "name": "",
          "type": "tuple[]"
        }
      ],
      "stateMutability": "view",
      "type": "function"
    },
    {
      "inputs": [
        {
          "internalType": "uint256",
          "name": "age",
          "type": "uint256"
        }
      ],
      "name": "verifyAge",
      "outputs": [
        {
          "internalType": "bool",
          "name": "",
          "type": "bool"
        }
      ],
      "stateMutability": "pure",
      "type": "function"
    }
  ],
  "bytecode": "0x60806040523480156200001157600080fd5b5033600860006101000a81548173ffffffffffffffffffffffffffffffffffffffff021916908373ffffffffffffffffffffffffffffffffffffffff16021790555062000099600860009054906101000a900473ffffffffffffffffffffffffffffffffffffffff166000620000e66401000000000262001bbd179091906401000000009004565b6040518060400160405280600581526020017f61646d696e00000000000000000000000000000000000000000000000000000081525060099081620000df9190620004ec565b50620006ee565b620001018282620001a2640100000000026401000000009004565b1562000144576040517f08c379a00000000000000000000000000000000000000000000000000000000081526004016200013b9062000634565b60405180910390fd5b60018260000160008373ffffffffffffffffffffffffffffffffffffffff1673ffffffffffffffffffffffffffffffffffffffff16815260200190815260200160002060006101000a81548160ff0219169083151502179055505050565b60008073ffffffffffffffffffffffffffffffffffffffff168273ffffffffffffffffffffffffffffffffffffffff160362000215576040517f08c379a00000000000000000000000000000000000000000000000000000000081526004016200020c90620006cc565b60405180910390fd5b8260000160008373ffffffffffffffffffffffffffffffffffffffff1673ffffffffffffffffffffffffffffffffffffffff16815260200190815260200160002060009054906101000a900460ff16905092915050565b600081519050919050565b7f4e487b7100000000000000000000000000000000000000000000000000000000600052604160045260246000fd5b7f4e487b7100000000000000000000000000000000000000000000000000000000600052602260045260246000fd5b60006002820490506001821680620002ee57607f821691505b602082108103620003045762000303620002a6565b5b50919050565b60008190508160005260206000209050919050565b60006020601f8301049050919050565b60008160020a8302905092915050565b600060088302620003717fffffffffffffffffffffffffffffffffffffffffffffffffffffffffffffffff826200032f565b6200037d86836200032f565b95508019841693508086168417925050509392505050565b6000819050919050565b6000819050919050565b6000620003ca620003c4620003be8462000395565b6200039f565b62000395565b9050919050565b6000819050919050565b620003e683620003a9565b620003fe620003f582620003d1565b8484546200033f565b825550505050565b600090565b6200041562000406565b62000422818484620003db565b505050565b5b818110156200044a576200043e6000826200040b565b60018101905062000428565b5050565b601f821115620004995762000463816200030a565b6200046e846200031f565b810160208510156200047e578190505b620004966200048d856200031f565b83018262000427565b50505b505050565b60008160020a8304905092915050565b6000620004c1600019846008026200049e565b1980831691505092915050565b6000620004dc8383620004ae565b9150826002028217905092915050565b620004f7826200026c565b67ffffffffffffffff81111562000513576200051262000277565b5b6200051f8254620002d5565b6200052c8282856200044e565b600060209050601f8311600181146200056457600084156200054f578287015190505b6200055b8582620004ce565b865550620005cb565b601f19841662000574866200030a565b60005b828110156200059e5784890151825560018201915060208501945060208101905062000577565b86831015620005be5784890151620005ba601f891682620004ae565b8355505b6001600288020188555050505b505050505050565b600082825260208201905092915050565b7f526f6c65733a206163636f756e7420616c72656164792068617320726f6c6500600082015250565b60006200061c601f83620005d3565b91506200062982620005e4565b602082019050919050565b600060208201905081810360008301526200064f816200060d565b9050919050565b7f526f6c65733a206163636f756e7420697320746865207a65726f20616464726560008201527f7373000000000000000000000000000000000000000000000000000000000000602082015250565b6000620006b4602283620005d3565b9150620006c18262000656565b604082019050919050565b60006020820190508181036000830152620006e781620006a5565b9050919050565b61326080620006fe6000396000f3fe608060405234801561001057600080fd5b5060043610610127576000357c01000000000000000000000000000000000000000000000000000000009004806358467dbc116100bf578063ad71f8dc1161008e578063ad71f8dc146102fd578063b6db75a014610319578063d3c43b6214610337578063d87c4be314610367578063e962414f1461038557610127565b806358467dbc146102505780635e6fef01146102805780636912a50e146102b15780637a4c96ad146102e157610127565b8063358b9d97116100fb578063358b9d97146101b65780634771b573146101d2578063498cc70d146102045780634d8131201461023457610127565b8062ce8e3e1461012c57806306a49fce1461014a578063079eaf34146101685780633477ee2e14610184575b600080fd5b6101346103b5565b6040516101419190611fd8565b60405180910390f35b610152610684565b60405161015f9190612113565b60405180910390f35b610182600480360381019061017d919061227e565b610811565b005b61019e60048036038101906101999190612322565b6109fc565b6040516101ad939291906123a8565b60405180910390f35b6101d060048036038101906101cb91906123ed565b610b46565b005b6101ec60048036038101906101e791906123ed565b610bdb565b6040516101fb939291906124e5565b60405180910390f35b61021e600480360381019061021991906123ed565b610e2b565b60405161022b9190612113565b60405180910390f35b61024e60048036038101906102499190612556565b611079565b005b61026a6004803603810190610265919061227e565b6110d7565b6040516102779190612600565b60405180910390f35b61029a60048036038101906102959190612322565b611622565b6040516102a8929190612622565b60405180910390f35b6102cb60048036038101906102c69190612322565b6116de565b6040516102d89190612661565b60405180910390f35b6102fb60048036038101906102f6919061267c565b6116fb565b005b61031760048036038101906103129190612707565b611961565b005b610321611af3565b60405161032e9190612661565b60405180910390f35b610351600480360381019061034c91906123ed565b611b0e565b60405161035e91906127c7565b60405180910390f35b61036f611b77565b60405161037c9190612661565b60405180910390f35b61039f600480360381019061039a91906123ed565b611b92565b6040516103ac91906127e2565b60405180910390f35b6060600060078054905067ffffffffffffffff8111156103d8576103d7612153565b5b60405190808252806020026020018201604052801561041157816020015b6103fe611d2c565b8152602001906001900390816103f65790505b50905060005b60078054905081101561067c57600360006007838154811061043c5761043b6127fd565b5b9060005260206000200160009054906101000a900473ffffffffffffffffffffffffffffffffffffffff1673ffffffffffffffffffffffffffffffffffffffff1673ffffffffffffffffffffffffffffffffffffffff1681526020019081526020016000206040518060a00160405290816000820160009054906101000a900473ffffffffffffffffffffffffffffffffffffffff1673ffffffffffffffffffffffffffffffffffffffff1673ffffffffffffffffffffffffffffffffffffffff1681526020016001820180546105129061285b565b80601f016020809104026020016040519081016040528092919081815260200182805461053e9061285b565b801561058b5780601f106105605761010080835404028352916020019161058b565b820191906000526020600020905b81548152906001019060200180831161056e57829003601f168201915b505050505081526020016002820180546105a49061285b565b80601f01602080910402602001604051908101604052809291908181526020018280546105d09061285b565b801561061d5780601f106105f25761010080835404028352916020019161061d565b820191906000526020600020905b81548152906001019060200180831161060057829003601f168201915b50505050508152602001600382015481526020016004820160009054906101000a900460ff16151515158152505082828151811061065e5761065d6127fd565b5b60200260200101819052508080610674906128bb565b915050610417565b508091505090565b60606005805480602002602001604051908101604052809291908181526020016000905b8282101561080857838290600052602060002090600302016040518060600160405290816000820180546106db9061285b565b80601f01602080910402602001604051908101604052809291908181526020018280546107079061285b565b80156107545780601f1061072957610100808354040283529160200191610754565b820191906000526020600020905b81548152906001019060200180831161073757829003601f168201915b5050505050815260200160018201805461076d9061285b565b80601f01602080910402602001604051908101604052809291908181526020018280546107999061285b565b80156107e65780601f106107bb576101008083540402835291602001916107e6565b820191906000526020600020905b8154815290600101906020018083116107c957829003601f168201915b50505050508152602001600282015481525050815260200190600101906106a8565b50505050905090565b610825336000611c6590919063ffffffff16565b15610865576040517f08c379a000000000000000000000000000000000000000000000000000000000815260040161085c9061294f565b60405180910390fd5b610879336001611c6590919063ffffffff16565b156108b9576040517f08c379a00000000000000000000000000000000000000000000000000000000081526004016108b0906129bb565b60405180910390fd5b6000600360003373ffffffffffffffffffffffffffffffffffffffff1673ffffffffffffffffffffffffffffffffffffffff16815260200190815260200160002090508281600101908161090d9190612b8d565b50338160000160006101000a81548173ffffffffffffffffffffffffffffffffffffffff021916908373ffffffffffffffffffffffffffffffffffffffff160217905550818160020190816109629190612b8d565b5060008160040160006101000a81548160ff0219169083151502179055506007339080600181540180825580915050600190039060005260206000200160009091909190916101000a81548173ffffffffffffffffffffffffffffffffffffffff021916908373ffffffffffffffffffffffffffffffffffffffff1602179055506109f7336001611bbd90919063ffffffff16565b505050565b60058181548110610a0c57600080fd5b9060005260206000209060030201600091509050806000018054610a2f9061285b565b80601f0160208091040260200160405190810160405280929190818152602001828054610a5b9061285b565b8015610aa85780601f10610a7d57610100808354040283529160200191610aa8565b820191906000526020600020905b815481529060010190602001808311610a8b57829003601f168201915b505050505090806001018054610abd9061285b565b80601f0160208091040260200160405190810160405280929190818152602001828054610ae99061285b565b8015610b365780601f10610b0b57610100808354040283529160200191610b36565b820191906000526020600020905b815481529060010190602001808311610b1957829003601f168201915b5050505050908060020154905083565b610b5a336000611c6590919063ffffffff16565b610b99576040517f08c379a0000000000000000000000000000000000000000000000000000000008152600401610b9090612cab565b60405180910390fd5b6000600282604051610bab9190612d07565b9081526020016040518091039020905081816000019081610bcc9190612b8d565b50600081600201819055505050565b606080600080600285604051610bf19190612d07565b908152602001604051809103902090508060030181600101826002015482805480602002602001604051908101604052809291908181526020016000905b82821015610d8f5783829060005260206000209060030201604051806060016040529081600082018054610c629061285b565b80601f0160208091040260200160405190810160405280929190818152602001828054610c8e9061285b565b8015610cdb5780601f10610cb057610100808354040283529160200191610cdb565b820191906000526020600020905b815481529060010190602001808311610cbe57829003601f168201915b50505050508152602001600182018054610cf49061285b565b80601f0160208091040260200160405190810160405280929190818152602001828054610d209061285b565b8015610d6d5780601f10610d4257610100808354040283529160200191610d6d565b820191906000526020600020905b815481529060010190602001808311610d5057829003601f168201915b5050505050815260200160028201548152505081526020019060010190610c2f565b50505050925081805480602002602001604051908101604052809291908181526020018280548015610e1657602002820191906000526020600020905b8160009054906101000a900473ffffffffffffffffffffffffffffffffffffffff1673ffffffffffffffffffffffffffffffffffffffff1681526020019060010190808311610dcc575b50505050509150935093509350509193909250565b60606000600283604051610e3f9190612d07565b908152602001604051809103902090506000816003018054905067ffffffffffffffff811115610e7257610e71612153565b5b604051908082528060200260200182016040528015610eab57816020015b610e98611d73565b815260200190600190039081610e905790505b50905060005b826003018054905081101561106e576004836003018281548110610ed857610ed76127fd565b5b9060005260206000209060030201600001604051610ef69190612da1565b9081526020016040518091039020604051806060016040529081600082018054610f1f9061285b565b80601f0160208091040260200160405190810160405280929190818152602001828054610f4b9061285b565b8015610f985780601f10610f6d57610100808354040283529160200191610f98565b820191906000526020600020905b815481529060010190602001808311610f7b57829003601f168201915b50505050508152602001600182018054610fb19061285b565b80601f0160208091040260200160405190810160405280929190818152602001828054610fdd9061285b565b801561102a5780601f10610fff5761010080835404028352916020019161102a565b820191906000526020600020905b81548152906001019060200180831161100d57829003601f168201915b505050505081526020016002820154815250508282815181106110505761104f6127fd565b5b60200260200101819052508080611066906128bb565b915050610eb1565b508092505050919050565b6001600360008373ffffffffffffffffffffffffffffffffffffffff1673ffffffffffffffffffffffffffffffffffffffff16815260200190815260200160002060040160006101000a81548160ff02191690831515021790555050565b6110df611d2c565b6110f3336000611c6590919063ffffffff16565b15611133576040517f08c379a000000000000000000000000000000000000000000000000000000000815260040161112a9061294f565b60405180910390fd5b611147336001611c6590919063ffffffff16565b611186576040517f08c379a000000000000000000000000000000000000000000000000000000000815260040161117d90612e04565b60405180910390fd5b6000600360003373ffffffffffffffffffffffffffffffffffffffff1673ffffffffffffffffffffffffffffffffffffffff1681526020019081526020016000206040518060a00160405290816000820160009054906101000a900473ffffffffffffffffffffffffffffffffffffffff1673ffffffffffffffffffffffffffffffffffffffff1673ffffffffffffffffffffffffffffffffffffffff1681526020016001820180546112389061285b565b80601f01602080910402602001604051908101604052809291908181526020018280546112649061285b565b80156112b15780601f10611286576101008083540402835291602001916112b1565b820191906000526020600020905b81548152906001019060200180831161129457829003601f168201915b505050505081526020016002820180546112ca9061285b565b80601f01602080910402602001604051908101604052809291908181526020018280546112f69061285b565b80156113435780601f1061131857610100808354040283529160200191611343565b820191906000526020600020905b81548152906001019060200180831161132657829003601f168201915b50505050508152602001600382015481526020016004820160009054906101000a900460ff1615151515815250509050836040516020016113849190612d07565b6040516020818303038152906040528051906020012081602001516040516020016113af9190612d07565b604051602081830303815290604052805190602001201480156114215750826040516020016113de9190612d07565b6040516020818303038152906040528051906020012081604001516040516020016114099190612d07565b60405160208183030381529060405280519060200120145b1561142f578091505061161c565b600360008073ffffffffffffffffffffffffffffffffffffffff1673ffffffffffffffffffffffffffffffffffffffff1681526020019081526020016000206040518060a00160405290816000820160009054906101000a900473ffffffffffffffffffffffffffffffffffffffff1673ffffffffffffffffffffffffffffffffffffffff1673ffffffffffffffffffffffffffffffffffffffff1681526020016001820180546114df9061285b565b80601f016020809104026020016040519081016040528092919081815260200182805461150b9061285b565b80156115585780601f1061152d57610100808354040283529160200191611558565b820191906000526020600020905b81548152906001019060200180831161153b57829003601f168201915b505050505081526020016002820180546115719061285b565b80601f016020809104026020016040519081016040528092919081815260200182805461159d9061285b565b80156115ea5780601f106115bf576101008083540402835291602001916115ea565b820191906000526020600020905b8154815290600101906020018083116115cd57829003601f168201915b50505050508152602001600382015481526020016004820160009054906101000a900460ff1615151515815250509150505b92915050565b6006818154811061163257600080fd5b90600052602060002090600502016000915090508060000180546116559061285b565b80601f01602080910402602001604051908101604052809291908181526020018280546116819061285b565b80156116ce5780601f106116a3576101008083540402835291602001916116ce565b820191906000526020600020905b8154815290600101906020018083116116b157829003601f168201915b5050505050908060020154905082565b6000601282106116f157600190506116f6565b600090505b919050565b611704816116de565b611743576040517f08c379a000000000000000000000000000000000000000000000000000000000815260040161173a90612e96565b60405180910390fd5b611757336001611c6590919063ffffffff16565b611796576040517f08c379a000000000000000000000000000000000000000000000000000000000815260040161178d90612f02565b60405180910390fd5b60006002836040516117a89190612d07565b908152602001604051809103902090508060040160003373ffffffffffffffffffffffffffffffffffffffff1673ffffffffffffffffffffffffffffffffffffffff16815260200190815260200160002060009054906101000a900460ff1615611847576040517f08c379a000000000000000000000000000000000000000000000000000000000815260040161183e90612f6e565b60405180910390fd5b60016004856040516118599190612d07565b908152602001604051809103902060020160008282546118799190612f8e565b9250508190555060018160020160008282546118959190612f8e565b9250508190555080600101339080600181540180825580915050600190039060005260206000200160009091909190916101000a81548173ffffffffffffffffffffffffffffffffffffffff021916908373ffffffffffffffffffffffffffffffffffffffff16021790555060018160040160003373ffffffffffffffffffffffffffffffffffffffff1673ffffffffffffffffffffffffffffffffffffffff16815260200190815260200160002060006101000a81548160ff02191690831515021790555050505050565b611975336000611c6590919063ffffffff16565b6119b4576040517f08c379a00000000000000000000000000000000000000000000000000000000081526004016119ab9061300e565b60405180910390fd5b60006004846040516119c69190612d07565b90815260200160405180910390209050838160000190816119e79190612b8d565b50828160010190816119f99190612b8d565b50600081600201819055506000600283604051611a169190612d07565b908152602001604051809103902090508060030182908060018154018082558091505060019003906000526020600020906003020160009091909190915060008201816000019081611a689190613044565b5060018201816001019081611a7d9190613044565b50600282015481600201555050600582908060018154018082558091505060019003906000526020600020906003020160009091909190915060008201816000019081611aca9190613044565b5060018201816001019081611adf9190613044565b506002820154816002015550505050505050565b6000611b09336000611c6590919063ffffffff16565b905090565b60006009604051602001611b229190612da1565b6040516020818303038152906040528051906020012082604051602001611b499190612d07565b6040516020818303038152906040528051906020012003611b6d5760019050611b72565b600090505b919050565b6000611b8d336001611c6590919063ffffffff16565b905090565b6000600482604051611ba49190612d07565b9081526020016040518091039020600201549050919050565b611bc78282611c65565b15611c07576040517f08c379a0000000000000000000000000000000000000000000000000000000008152600401611bfe90613178565b60405180910390fd5b60018260000160008373ffffffffffffffffffffffffffffffffffffffff1673ffffffffffffffffffffffffffffffffffffffff16815260200190815260200160002060006101000a81548160ff0219169083151502179055505050565b60008073ffffffffffffffffffffffffffffffffffffffff168273ffffffffffffffffffffffffffffffffffffffff1603611cd5576040517f08c379a0000000000000000000000000000000000000000000000000000000008152600401611ccc9061320a565b60405180910390fd5b8260000160008373ffffffffffffffffffffffffffffffffffffffff1673ffffffffffffffffffffffffffffffffffffffff16815260200190815260200160002060009054906101000a900460ff16905092915050565b6040518060a00160405280600073ffffffffffffffffffffffffffffffffffffffff1681526020016060815260200160608152602001600081526020016000151581525090565b60405180606001604052806060815260200160608152602001600081525090565b600081519050919050565b600082825260208201905092915050565b6000819050602082019050919050565b600073ffffffffffffffffffffffffffffffffffffffff82169050919050565b6000611deb82611dc0565b9050919050565b611dfb81611de0565b82525050565b600081519050919050565b600082825260208201905092915050565b60005b83811015611e3b578082015181840152602081019050611e20565b60008484015250505050565b6000601f19601f8301169050919050565b6000611e6382611e01565b611e6d8185611e0c565b9350611e7d818560208601611e1d565b611e8681611e47565b840191505092915050565b6000819050919050565b611ea481611e91565b82525050565b60008115159050919050565b611ebf81611eaa565b82525050565b600060a083016000830151611edd6000860182611df2565b5060208301518482036020860152611ef58282611e58565b91505060408301518482036040860152611f0f8282611e58565b9150506060830151611f246060860182611e9b565b506080830151611f376080860182611eb6565b508091505092915050565b6000611f4e8383611ec5565b905092915050565b6000602082019050919050565b6000611f6e82611d94565b611f788185611d9f565b935083602082028501611f8a85611db0565b8060005b85811015611fc65784840389528151611fa78582611f42565b9450611fb283611f56565b925060208a01995050600181019050611f8e565b50829750879550505050505092915050565b60006020820190508181036000830152611ff28184611f63565b905092915050565b600081519050919050565b600082825260208201905092915050565b6000819050602082019050919050565b600060608301600083015184820360008601526120438282611e58565b9150506020830151848203602086015261205d8282611e58565b91505060408301516120726040860182611e9b565b508091505092915050565b60006120898383612026565b905092915050565b6000602082019050919050565b60006120a982611ffa565b6120b38185612005565b9350836020820285016120c585612016565b8060005b8581101561210157848403895281516120e2858261207d565b94506120ed83612091565b925060208a019950506001810190506120c9565b50829750879550505050505092915050565b6000602082019050818103600083015261212d818461209e565b905092915050565b6000604051905090565b600080fd5b600080fd5b600080fd5b600080fd5b7f4e487b7100000000000000000000000000000000000000000000000000000000600052604160045260246000fd5b61218b82611e47565b810181811067ffffffffffffffff821117156121aa576121a9612153565b5b80604052505050565b60006121bd612135565b90506121c98282612182565b919050565b600067ffffffffffffffff8211156121e9576121e8612153565b5b6121f282611e47565b9050602081019050919050565b82818337600083830152505050565b600061222161221c846121ce565b6121b3565b90508281526020810184848401111561223d5761223c61214e565b5b6122488482856121ff565b509392505050565b600082601f83011261226557612264612149565b5b813561227584826020860161220e565b91505092915050565b600080604083850312156122955761229461213f565b5b600083013567ffffffffffffffff8111156122b3576122b2612144565b5b6122bf85828601612250565b925050602083013567ffffffffffffffff8111156122e0576122df612144565b5b6122ec85828601612250565b9150509250929050565b6122ff81611e91565b811461230a57600080fd5b50565b60008135905061231c816122f6565b92915050565b6000602082840312156123385761233761213f565b5b60006123468482850161230d565b91505092915050565b600082825260208201905092915050565b600061236b82611e01565b612375818561234f565b9350612385818560208601611e1d565b61238e81611e47565b840191505092915050565b6123a281611e91565b82525050565b600060608201905081810360008301526123c28186612360565b905081810360208301526123d68185612360565b90506123e56040830184612399565b949350505050565b6000602082840312156124035761240261213f565b5b600082013567ffffffffffffffff81111561242157612420612144565b5b61242d84828501612250565b91505092915050565b600081519050919050565b600082825260208201905092915050565b6000819050602082019050919050565b600061246e8383611df2565b60208301905092915050565b6000602082019050919050565b600061249282612436565b61249c8185612441565b93506124a783612452565b8060005b838110156124d85781516124bf8882612462565b97506124ca8361247a565b9250506001810190506124ab565b5085935050505092915050565b600060608201905081810360008301526124ff818661209e565b905081810360208301526125138185612487565b90506125226040830184612399565b949350505050565b61253381611de0565b811461253e57600080fd5b50565b6000813590506125508161252a565b92915050565b60006020828403121561256c5761256b61213f565b5b600061257a84828501612541565b91505092915050565b600060a08301600083015161259b6000860182611df2565b50602083015184820360208601526125b38282611e58565b915050604083015184820360408601526125cd8282611e58565b91505060608301516125e26060860182611e9b565b5060808301516125f56080860182611eb6565b508091505092915050565b6000602082019050818103600083015261261a8184612583565b905092915050565b6000604082019050818103600083015261263c8185612360565b905061264b6020830184612399565b9392505050565b61265b81611eaa565b82525050565b60006020820190506126766000830184612652565b92915050565b6000806000606084860312156126955761269461213f565b5b600084013567ffffffffffffffff8111156126b3576126b2612144565b5b6126bf86828701612250565b935050602084013567ffffffffffffffff8111156126e0576126df612144565b5b6126ec86828701612250565b92505060406126fd8682870161230d565b9150509250925092565b6000806000606084860312156127205761271f61213f565b5b600084013567ffffffffffffffff81111561273e5761273d612144565b5b61274a86828701612250565b935050602084013567ffffffffffffffff81111561276b5761276a612144565b5b61277786828701612250565b925050604084013567ffffffffffffffff81111561279857612797612144565b5b6127a486828701612250565b9150509250925092565b6000819050919050565b6127c1816127ae565b82525050565b60006020820190506127dc60008301846127b8565b92915050565b60006020820190506127f76000830184612399565b92915050565b7f4e487b7100000000000000000000000000000000000000000000000000000000600052603260045260246000fd5b7f4e487b7100000000000000000000000000000000000000000000000000000000600052602260045260246000fd5b6000600282049050600182168061287357607f821691505b6020821081036128865761288561282c565b5b50919050565b7f4e487b7100000000000000000000000000000000000000000000000000000000600052601160045260246000fd5b60006128c682611e91565b91507fffffffffffffffffffffffffffffffffffffffffffffffffffffffffffffffff82036128f8576128f761288c565b5b600182019050919050565b7f436f6e6e65637465642061732041646d696e0000000000000000000000000000600082015250565b600061293960128361234f565b915061294482612903565b602082019050919050565b600060208201905081810360008301526129688161292c565b9050919050565b7f416c7265616479206578697374696e6720757365720000000000000000000000600082015250565b60006129a560158361234f565b91506129b08261296f565b602082019050919050565b600060208201905081810360008301526129d481612998565b9050919050565b60008190508160005260206000209050919050565b60006020601f8301049050919050565b60008160020a8302905092915050565b600060088302612a407fffffffffffffffffffffffffffffffffffffffffffffffffffffffffffffffff82612a00565b612a4a8683612a00565b95508019841693508086168417925050509392505050565b6000819050919050565b6000612a87612a82612a7d84611e91565b612a62565b611e91565b9050919050565b6000819050919050565b612aa183612a6c565b612ab5612aad82612a8e565b848454612a10565b825550505050565b600090565b612aca612abd565b612ad5818484612a98565b505050565b5b81811015612af957612aee600082612ac2565b600181019050612adb565b5050565b601f821115612b3e57612b0f816129db565b612b18846129f0565b81016020851015612b27578190505b612b3b612b33856129f0565b830182612ada565b50505b505050565b60008160020a8304905092915050565b6000612b6460001984600802612b43565b1980831691505092915050565b6000612b7d8383612b53565b9150826002028217905092915050565b612b9682611e01565b67ffffffffffffffff811115612baf57612bae612153565b5b612bb9825461285b565b612bc4828285612afd565b600060209050601f831160018114612bf75760008415612be5578287015190505b612bef8582612b71565b865550612c57565b601f198416612c05866129db565b60005b82811015612c2d57848901518255600182019150602085019450602081019050612c08565b86831015612c4a5784890151612c46601f891682612b53565b8355505b6001600288020188555050505b505050505050565b7f6f6e6c792061646d696e2063616e2061646420456c656374696f6e0000000000600082015250565b6000612c95601b8361234f565b9150612ca082612c5f565b602082019050919050565b60006020820190508181036000830152612cc481612c88565b9050919050565b600081905092915050565b6000612ce182611e01565b612ceb8185612ccb565b9350612cfb818560208601611e1d565b80840191505092915050565b6000612d138284612cd6565b915081905092915050565b60008154612d2b8161285b565b612d358186612ccb565b94506001821660008114612d505760018114612d6557612d98565b60ff1983168652811515820286019350612d98565b612d6e856129db565b60005b83811015612d9057815481890152600182019150602081019050612d71565b838801955050505b50505092915050565b6000612dad8284612d1e565b915081905092915050565b7f4e6f742061207265676973746572656420766f74657200000000000000000000600082015250565b6000612dee60168361234f565b9150612df982612db8565b602082019050919050565b60006020820190508181036000830152612e1d81612de1565b9050919050565b7f4e6f207469656e65206c61206564616420737566696369656e7465207061726160008201527f20766f7461720000000000000000000000000000000000000000000000000000602082015250565b6000612e8060268361234f565b9150612e8b82612e24565b604082019050919050565b60006020820190508181036000830152612eaf81612e73565b9050919050565b7f5573756172696f206e6f207265676973747261646f0000000000000000000000600082015250565b6000612eec60158361234f565b9150612ef782612eb6565b602082019050919050565b60006020820190508181036000830152612f1b81612edf565b9050919050565b7f557374656420796120686120766f7461646f0000000000000000000000000000600082015250565b6000612f5860128361234f565b9150612f6382612f22565b602082019050919050565b60006020820190508181036000830152612f8781612f4b565b9050919050565b6000612f9982611e91565b9150612fa483611e91565b9250828201905080821115612fbc57612fbb61288c565b5b92915050565b7f6f6e6c792061646d696e2063616e206164642043616e64696461746573000000600082015250565b6000612ff8601d8361234f565b915061300382612fc2565b602082019050919050565b6000602082019050818103600083015261302781612feb565b9050919050565b60008154905061303d8161285b565b9050919050565b81810361305257505061312a565b61305b8261302e565b67ffffffffffffffff81111561307457613073612153565b5b61307e825461285b565b613089828285612afd565b6000601f8311600181146130b857600084156130a6578287015490505b6130b08582612b71565b865550613123565b601f1984166130c6876129db565b96506130d1866129db565b60005b828110156130f9578489015482556001820191506001850194506020810190506130d4565b868310156131165784890154613112601f891682612b53565b8355505b6001600288020188555050505b5050505050505b565b7f526f6c65733a206163636f756e7420616c72656164792068617320726f6c6500600082015250565b6000613162601f8361234f565b915061316d8261312c565b602082019050919050565b6000602082019050818103600083015261319181613155565b9050919050565b7f526f6c65733a206163636f756e7420697320746865207a65726f20616464726560008201527f7373000000000000000000000000000000000000000000000000000000000000602082015250565b60006131f460228361234f565b91506131ff82613198565b604082019050919050565b60006020820190508181036000830152613223816131e7565b905091905056fea2646970667358221220c1a4d86981c49ec7f5357055be1e7e2730f0afc44bb172aaf52ffa887d74688764736f6c63430008110033",
  "immutableReferences": {},
  "source": "// SPDX-License-Identifier: MIT\r\npragma solidity >=0.4.22 <0.9.0;\r\n\r\nimport './Roles.sol';\r\n\r\ncontract Voting {\r\n\r\n    using Roles for Roles.Role;\r\n\r\n    Roles.Role private adminRole;\r\n    Roles.Role private userRole;\r\n\r\n\r\n    struct User {\r\n        address key;\r\n        string nationalId;\r\n        string pwd;\r\n        uint age;\r\n        bool isActive;\r\n    }\r\n\r\n    struct Candidate {\r\n        string id;\r\n        string name;\r\n        uint voteCount;\r\n    }\r\n\r\n    struct Election {\r\n        string id;\r\n        address[] voters;\r\n        uint votes;\r\n        Candidate[] candidates;\r\n        mapping(address => bool) Voters;\r\n    }\r\n\r\n    mapping(string => Election) ElectionsMap;\r\n    mapping(address => User) UsersMap;\r\n    mapping(string => Candidate) CandidatesMap;\r\n    // mapping(address => bool) Voters;\r\n\r\n    Candidate[] public candidates;\r\n    Election[] public elections;\r\n    address[] private users;\r\n    address adminId;\r\n    string adminPwd;\r\n\r\n    constructor() {\r\n        adminId = msg.sender;\r\n        adminRole.add(adminId);\r\n        adminPwd = \"admin\";\r\n    }\r\n\r\n    function isAdmin() public view returns (bool){\r\n        return adminRole.has(msg.sender);\r\n    }\r\n\r\n    function isVoter() public view returns (bool){\r\n        return userRole.has(msg.sender);\r\n    }\r\n\r\n\r\n    function adminLogin(string memory pwd) public view returns (int){\r\n        if (keccak256(abi.encodePacked(pwd)) == keccak256(abi.encodePacked(adminPwd))) {\r\n            return 1;\r\n        }\r\n        else {\r\n            return 0;\r\n        }\r\n    }\r\n\r\n    function addElection(string memory id) public {\r\n        require(adminRole.has(msg.sender), \"only admin can add Election\");\r\n        Election storage election = ElectionsMap[id];\r\n        election.id = id;\r\n        election.votes = 0;\r\n\r\n    }\r\n\r\n    function getElection(string memory eId) public view returns (Candidate[] memory, address[] memory, uint){\r\n        Election storage election = ElectionsMap[eId];\r\n\r\n        return (election.candidates, election.voters, election.votes);\r\n    }\r\n\r\n    function addUser(string memory nationalId, string memory pwd) public {\r\n        if (adminRole.has(msg.sender)) revert(\"Connected as Admin\");\r\n        if (userRole.has(msg.sender)) revert(\"Already existing user\");\r\n\r\n        User storage user = UsersMap[msg.sender];\r\n        user.nationalId = nationalId;\r\n        user.key = msg.sender;\r\n        user.pwd = pwd;\r\n        user.isActive = false;\r\n\r\n        users.push(msg.sender);\r\n\r\n        userRole.add(msg.sender);\r\n    }\r\n\r\n    function verifyUser(address _voter) public {\r\n        UsersMap[_voter].isActive = true;\r\n    }\r\n\r\n    function login(string memory nationalId, string memory pwd) public view returns (User memory){\r\n        require(!adminRole.has(msg.sender), \"Connected as Admin\");\r\n        require(userRole.has(msg.sender), \"Not a registered voter\");\r\n\r\n        User memory user = UsersMap[msg.sender];\r\n\r\n        if (keccak256(abi.encodePacked(user.nationalId)) ==\r\n        keccak256(abi.encodePacked(nationalId)) &&\r\n            keccak256(abi.encodePacked(user.pwd)) ==\r\n            keccak256(abi.encodePacked(pwd)))\r\n            return user;\r\n        return UsersMap[address(0)];\r\n    }\r\n\r\n    function getUsers() public view returns (User[] memory){\r\n        User[] memory _users = new User[](users.length);\r\n        for (uint i = 0; i < users.length; i++) {\r\n            _users[i] = UsersMap[users[i]];\r\n        }\r\n        return _users;\r\n    }\r\n\r\n    function addCandidate(string memory id, string memory name, string memory eId) public {\r\n        require(adminRole.has(msg.sender), \"only admin can add Candidates\");\r\n        Candidate storage candidate = CandidatesMap[id];\r\n        candidate.id = id;\r\n        candidate.name = name;\r\n        candidate.voteCount = 0;\r\n\r\n        Election storage election = ElectionsMap[eId];\r\n        election.candidates.push(candidate);\r\n\r\n        candidates.push(candidate);\r\n    }\r\n\r\n    function getCandidates() public view returns (Candidate[] memory){\r\n        return candidates;\r\n    }\r\n\r\n    function getCandidateVotes(string memory id) public view returns (uint){\r\n        return CandidatesMap[id].voteCount;\r\n    }\r\n\r\n    function vote(string memory cId, string memory eId, uint diferenciaAnios) public {\r\n        require(verifyAge(diferenciaAnios), \"No tiene la edad suficiente para votar\");\r\n        require(userRole.has(msg.sender), \"Usuario no registrado\");\r\n        Election storage election = ElectionsMap[eId];\r\n        require(!election.Voters[msg.sender], \"Usted ya ha votado\");\r\n        CandidatesMap[cId].voteCount += 1;\r\n        // verify age of voter \r\n        election.votes += 1;\r\n        election.voters.push(msg.sender);\r\n        election.Voters[msg.sender] = true;\r\n    }\r\n\r\n    function getResult(string memory _eId) public view returns (Candidate[] memory)  {\r\n        Election storage _election = ElectionsMap[_eId];\r\n        Candidate[] memory _candidates = new Candidate[](_election.candidates.length);\r\n\r\n        for (uint i = 0; i < _election.candidates.length; i++) {\r\n            _candidates[i] = CandidatesMap[_election.candidates[i].id];\r\n        }\r\n\r\n        return _candidates;\r\n    }\r\n\r\n    // function to verify age of voter and return true if age is greater than 18 years old and false if not \r\n    function verifyAge(uint age) public pure returns (bool){\r\n        if (age >= 18) {\r\n            return true;\r\n        }\r\n        else {\r\n            return false;\r\n        }\r\n    }\r\n   \r\n    \r\n\r\n}",
  "sourcePath": "C:\\Users\\clope\\OneDrive\\Documentos\\Programacion\\TesisV1.0\\evotingec\\Client\\contracts\\Voting.sol",
  "compiler": {
    "name": "solc",
    "version": "0.8.17+commit.8df45f5f.Emscripten.clang"
  },
  "schemaVersion": "3.4.14",
  "updatedAt": "2023-08-28T00:20:39.764Z",
  "devdoc": {
    "kind": "dev",
    "methods": {},
    "version": 1
  },
  "userdoc": {
    "kind": "user",
    "methods": {},
    "version": 1
  }
}