{
  "contractName": "Voting",
  "abi": [
    {
      "inputs": [],
      "stateMutability": "nonpayable",
      "type": "constructor"
    },
    {
      "inputs": [
        {
          "internalType": "uint256",
          "name": "",
          "type": "uint256"
        }
      ],
      "name": "candidates",
      "outputs": [
        {
          "internalType": "string",
          "name": "id",
          "type": "string"
        },
        {
          "internalType": "string",
          "name": "name",
          "type": "string"
        },
        {
          "internalType": "uint256",
          "name": "voteCount",
          "type": "uint256"
        }
      ],
      "stateMutability": "view",
      "type": "function"
    },
    {
      "inputs": [
        {
          "internalType": "uint256",
          "name": "",
          "type": "uint256"
        }
      ],
      "name": "elections",
      "outputs": [
        {
          "internalType": "string",
          "name": "id",
          "type": "string"
        },
        {
          "internalType": "uint256",
          "name": "votes",
          "type": "uint256"
        }
      ],
      "stateMutability": "view",
      "type": "function"
    },
    {
      "inputs": [],
      "name": "isAdmin",
      "outputs": [
        {
          "internalType": "bool",
          "name": "",
          "type": "bool"
        }
      ],
      "stateMutability": "view",
      "type": "function"
    },
    {
      "inputs": [],
      "name": "isVoter",
      "outputs": [
        {
          "internalType": "bool",
          "name": "",
          "type": "bool"
        }
      ],
      "stateMutability": "view",
      "type": "function"
    },
    {
      "inputs": [
        {
          "internalType": "string",
          "name": "pwd",
          "type": "string"
        }
      ],
      "name": "adminLogin",
      "outputs": [
        {
          "internalType": "int256",
          "name": "",
          "type": "int256"
        }
      ],
      "stateMutability": "view",
      "type": "function"
    },
    {
      "inputs": [
        {
          "internalType": "string",
          "name": "id",
          "type": "string"
        }
      ],
      "name": "addElection",
      "outputs": [],
      "stateMutability": "nonpayable",
      "type": "function"
    },
    {
      "inputs": [
        {
          "internalType": "string",
          "name": "eId",
          "type": "string"
        }
      ],
      "name": "getElection",
      "outputs": [
        {
          "components": [
            {
              "internalType": "string",
              "name": "id",
              "type": "string"
            },
            {
              "internalType": "string",
              "name": "name",
              "type": "string"
            },
            {
              "internalType": "uint256",
              "name": "voteCount",
              "type": "uint256"
            }
          ],
          "internalType": "struct Voting.Candidate[]",
          "name": "",
          "type": "tuple[]"
        },
        {
          "internalType": "address[]",
          "name": "",
          "type": "address[]"
        },
        {
          "internalType": "uint256",
          "name": "",
          "type": "uint256"
        }
      ],
      "stateMutability": "view",
      "type": "function"
    },
    {
      "inputs": [
        {
          "internalType": "string",
          "name": "nationalId",
          "type": "string"
        },
        {
          "internalType": "string",
          "name": "pwd",
          "type": "string"
        }
      ],
      "name": "addUser",
      "outputs": [],
      "stateMutability": "nonpayable",
      "type": "function"
    },
    {
      "inputs": [
        {
          "internalType": "address",
          "name": "_voter",
          "type": "address"
        }
      ],
      "name": "verifyUser",
      "outputs": [],
      "stateMutability": "nonpayable",
      "type": "function"
    },
    {
      "inputs": [
        {
          "internalType": "string",
          "name": "nationalId",
          "type": "string"
        },
        {
          "internalType": "string",
          "name": "pwd",
          "type": "string"
        }
      ],
      "name": "login",
      "outputs": [
        {
          "components": [
            {
              "internalType": "address",
              "name": "key",
              "type": "address"
            },
            {
              "internalType": "string",
              "name": "nationalId",
              "type": "string"
            },
            {
              "internalType": "string",
              "name": "pwd",
              "type": "string"
            },
            {
              "internalType": "uint256",
              "name": "age",
              "type": "uint256"
            },
            {
              "internalType": "bool",
              "name": "isActive",
              "type": "bool"
            }
          ],
          "internalType": "struct Voting.User",
          "name": "",
          "type": "tuple"
        }
      ],
      "stateMutability": "view",
      "type": "function"
    },
    {
      "inputs": [],
      "name": "getUsers",
      "outputs": [
        {
          "components": [
            {
              "internalType": "address",
              "name": "key",
              "type": "address"
            },
            {
              "internalType": "string",
              "name": "nationalId",
              "type": "string"
            },
            {
              "internalType": "string",
              "name": "pwd",
              "type": "string"
            },
            {
              "internalType": "uint256",
              "name": "age",
              "type": "uint256"
            },
            {
              "internalType": "bool",
              "name": "isActive",
              "type": "bool"
            }
          ],
          "internalType": "struct Voting.User[]",
          "name": "",
          "type": "tuple[]"
        }
      ],
      "stateMutability": "view",
      "type": "function"
    },
    {
      "inputs": [
        {
          "internalType": "string",
          "name": "id",
          "type": "string"
        },
        {
          "internalType": "string",
          "name": "name",
          "type": "string"
        },
        {
          "internalType": "string",
          "name": "eId",
          "type": "string"
        }
      ],
      "name": "addCandidate",
      "outputs": [],
      "stateMutability": "nonpayable",
      "type": "function"
    },
    {
      "inputs": [],
      "name": "getCandidates",
      "outputs": [
        {
          "components": [
            {
              "internalType": "string",
              "name": "id",
              "type": "string"
            },
            {
              "internalType": "string",
              "name": "name",
              "type": "string"
            },
            {
              "internalType": "uint256",
              "name": "voteCount",
              "type": "uint256"
            }
          ],
          "internalType": "struct Voting.Candidate[]",
          "name": "",
          "type": "tuple[]"
        }
      ],
      "stateMutability": "view",
      "type": "function"
    },
    {
      "inputs": [
        {
          "internalType": "string",
          "name": "id",
          "type": "string"
        }
      ],
      "name": "getCandidateVotes",
      "outputs": [
        {
          "internalType": "uint256",
          "name": "",
          "type": "uint256"
        }
      ],
      "stateMutability": "view",
      "type": "function"
    },
    {
      "inputs": [
        {
          "internalType": "string",
          "name": "cId",
          "type": "string"
        },
        {
          "internalType": "string",
          "name": "eId",
          "type": "string"
        }
      ],
      "name": "vote",
      "outputs": [],
      "stateMutability": "nonpayable",
      "type": "function"
    },
    {
      "inputs": [
        {
          "internalType": "string",
          "name": "_eId",
          "type": "string"
        }
      ],
      "name": "getResult",
      "outputs": [
        {
          "components": [
            {
              "internalType": "string",
              "name": "id",
              "type": "string"
            },
            {
              "internalType": "string",
              "name": "name",
              "type": "string"
            },
            {
              "internalType": "uint256",
              "name": "voteCount",
              "type": "uint256"
            }
          ],
          "internalType": "struct Voting.Candidate[]",
          "name": "",
          "type": "tuple[]"
        }
      ],
      "stateMutability": "view",
      "type": "function"
    },
    {
      "inputs": [
        {
          "internalType": "uint256",
          "name": "age",
          "type": "uint256"
        }
      ],
      "name": "verifyAge",
      "outputs": [
        {
          "internalType": "bool",
          "name": "",
          "type": "bool"
        }
      ],
      "stateMutability": "pure",
      "type": "function"
    },
    {
      "inputs": [
        {
          "internalType": "uint256",
          "name": "votingEndTime",
          "type": "uint256"
        }
      ],
      "name": "hasVotingEnded",
      "outputs": [
        {
          "internalType": "bool",
          "name": "",
          "type": "bool"
        }
      ],
      "stateMutability": "view",
      "type": "function"
    }
  ],
  "bytecode": "0x60806040523480156200001157600080fd5b5033600860006101000a81548173ffffffffffffffffffffffffffffffffffffffff021916908373ffffffffffffffffffffffffffffffffffffffff16021790555062000099600860009054906101000a900473ffffffffffffffffffffffffffffffffffffffff166000620000e66401000000000262001bcb179091906401000000009004565b6040518060400160405280600581526020017f61646d696e00000000000000000000000000000000000000000000000000000081525060099081620000df9190620004ec565b50620006ee565b620001018282620001a2640100000000026401000000009004565b1562000144576040517f08c379a00000000000000000000000000000000000000000000000000000000081526004016200013b9062000634565b60405180910390fd5b60018260000160008373ffffffffffffffffffffffffffffffffffffffff1673ffffffffffffffffffffffffffffffffffffffff16815260200190815260200160002060006101000a81548160ff0219169083151502179055505050565b60008073ffffffffffffffffffffffffffffffffffffffff168273ffffffffffffffffffffffffffffffffffffffff160362000215576040517f08c379a00000000000000000000000000000000000000000000000000000000081526004016200020c90620006cc565b60405180910390fd5b8260000160008373ffffffffffffffffffffffffffffffffffffffff1673ffffffffffffffffffffffffffffffffffffffff16815260200190815260200160002060009054906101000a900460ff16905092915050565b600081519050919050565b7f4e487b7100000000000000000000000000000000000000000000000000000000600052604160045260246000fd5b7f4e487b7100000000000000000000000000000000000000000000000000000000600052602260045260246000fd5b60006002820490506001821680620002ee57607f821691505b602082108103620003045762000303620002a6565b5b50919050565b60008190508160005260206000209050919050565b60006020601f8301049050919050565b60008160020a8302905092915050565b600060088302620003717fffffffffffffffffffffffffffffffffffffffffffffffffffffffffffffffff826200032f565b6200037d86836200032f565b95508019841693508086168417925050509392505050565b6000819050919050565b6000819050919050565b6000620003ca620003c4620003be8462000395565b6200039f565b62000395565b9050919050565b6000819050919050565b620003e683620003a9565b620003fe620003f582620003d1565b8484546200033f565b825550505050565b600090565b6200041562000406565b62000422818484620003db565b505050565b5b818110156200044a576200043e6000826200040b565b60018101905062000428565b5050565b601f821115620004995762000463816200030a565b6200046e846200031f565b810160208510156200047e578190505b620004966200048d856200031f565b83018262000427565b50505b505050565b60008160020a8304905092915050565b6000620004c1600019846008026200049e565b1980831691505092915050565b6000620004dc8383620004ae565b9150826002028217905092915050565b620004f7826200026c565b67ffffffffffffffff81111562000513576200051262000277565b5b6200051f8254620002d5565b6200052c8282856200044e565b600060209050601f8311600181146200056457600084156200054f578287015190505b6200055b8582620004ce565b865550620005cb565b601f19841662000574866200030a565b60005b828110156200059e5784890151825560018201915060208501945060208101905062000577565b86831015620005be5784890151620005ba601f891682620004ae565b8355505b6001600288020188555050505b505050505050565b600082825260208201905092915050565b7f526f6c65733a206163636f756e7420616c72656164792068617320726f6c6500600082015250565b60006200061c601f83620005d3565b91506200062982620005e4565b602082019050919050565b600060208201905081810360008301526200064f816200060d565b9050919050565b7f526f6c65733a206163636f756e7420697320746865207a65726f20616464726560008201527f7373000000000000000000000000000000000000000000000000000000000000602082015250565b6000620006b4602283620005d3565b9150620006c18262000656565b604082019050919050565b60006020820190508181036000830152620006e781620006a5565b9050919050565b61315180620006fe6000396000f3fe608060405234801561001057600080fd5b5060043610610132576000357c0100000000000000000000000000000000000000000000000000000000900480635e6fef01116100bf578063b6db75a01161008e578063b6db75a014610338578063d3c43b6214610356578063d87c4be314610386578063e8d5940d146103a4578063e962414f146103c057610132565b80635e6fef011461028b5780636912a50e146102bc5780638b4a271c146102ec578063ad71f8dc1461031c57610132565b8063358b9d9711610106578063358b9d97146101c15780634771b573146101dd578063498cc70d1461020f5780634d8131201461023f57806358467dbc1461025b57610132565b8062ce8e3e1461013757806306a49fce14610155578063079eaf34146101735780633477ee2e1461018f575b600080fd5b61013f6103f0565b60405161014c9190611fe6565b60405180910390f35b61015d6106bf565b60405161016a9190612121565b60405180910390f35b61018d6004803603810190610188919061228c565b61084c565b005b6101a960048036038101906101a49190612330565b610a37565b6040516101b8939291906123b6565b60405180910390f35b6101db60048036038101906101d691906123fb565b610b81565b005b6101f760048036038101906101f291906123fb565b610c16565b604051610206939291906124f3565b60405180910390f35b610229600480360381019061022491906123fb565b610e66565b6040516102369190612121565b60405180910390f35b61025960048036038101906102549190612564565b6110b4565b005b6102756004803603810190610270919061228c565b611112565b604051610282919061260e565b60405180910390f35b6102a560048036038101906102a09190612330565b61165d565b6040516102b3929190612630565b60405180910390f35b6102d660048036038101906102d19190612330565b611719565b6040516102e3919061266f565b60405180910390f35b61030660048036038101906103019190612330565b611736565b604051610313919061266f565b60405180910390f35b6103366004803603810190610331919061268a565b611752565b005b6103406118e4565b60405161034d919061266f565b60405180910390f35b610370600480360381019061036b91906123fb565b6118ff565b60405161037d919061274a565b60405180910390f35b61038e611968565b60405161039b919061266f565b60405180910390f35b6103be60048036038101906103b9919061228c565b611983565b005b6103da60048036038101906103d591906123fb565b611ba0565b6040516103e79190612765565b60405180910390f35b6060600060078054905067ffffffffffffffff81111561041357610412612161565b5b60405190808252806020026020018201604052801561044c57816020015b610439611d3a565b8152602001906001900390816104315790505b50905060005b6007805490508110156106b757600360006007838154811061047757610476612780565b5b9060005260206000200160009054906101000a900473ffffffffffffffffffffffffffffffffffffffff1673ffffffffffffffffffffffffffffffffffffffff1673ffffffffffffffffffffffffffffffffffffffff1681526020019081526020016000206040518060a00160405290816000820160009054906101000a900473ffffffffffffffffffffffffffffffffffffffff1673ffffffffffffffffffffffffffffffffffffffff1673ffffffffffffffffffffffffffffffffffffffff16815260200160018201805461054d906127de565b80601f0160208091040260200160405190810160405280929190818152602001828054610579906127de565b80156105c65780601f1061059b576101008083540402835291602001916105c6565b820191906000526020600020905b8154815290600101906020018083116105a957829003601f168201915b505050505081526020016002820180546105df906127de565b80601f016020809104026020016040519081016040528092919081815260200182805461060b906127de565b80156106585780601f1061062d57610100808354040283529160200191610658565b820191906000526020600020905b81548152906001019060200180831161063b57829003601f168201915b50505050508152602001600382015481526020016004820160009054906101000a900460ff16151515158152505082828151811061069957610698612780565b5b602002602001018190525080806106af9061283e565b915050610452565b508091505090565b60606005805480602002602001604051908101604052809291908181526020016000905b828210156108435783829060005260206000209060030201604051806060016040529081600082018054610716906127de565b80601f0160208091040260200160405190810160405280929190818152602001828054610742906127de565b801561078f5780601f106107645761010080835404028352916020019161078f565b820191906000526020600020905b81548152906001019060200180831161077257829003601f168201915b505050505081526020016001820180546107a8906127de565b80601f01602080910402602001604051908101604052809291908181526020018280546107d4906127de565b80156108215780601f106107f657610100808354040283529160200191610821565b820191906000526020600020905b81548152906001019060200180831161080457829003601f168201915b50505050508152602001600282015481525050815260200190600101906106e3565b50505050905090565b610860336000611c7390919063ffffffff16565b156108a0576040517f08c379a0000000000000000000000000000000000000000000000000000000008152600401610897906128d2565b60405180910390fd5b6108b4336001611c7390919063ffffffff16565b156108f4576040517f08c379a00000000000000000000000000000000000000000000000000000000081526004016108eb9061293e565b60405180910390fd5b6000600360003373ffffffffffffffffffffffffffffffffffffffff1673ffffffffffffffffffffffffffffffffffffffff1681526020019081526020016000209050828160010190816109489190612b10565b50338160000160006101000a81548173ffffffffffffffffffffffffffffffffffffffff021916908373ffffffffffffffffffffffffffffffffffffffff1602179055508181600201908161099d9190612b10565b5060008160040160006101000a81548160ff0219169083151502179055506007339080600181540180825580915050600190039060005260206000200160009091909190916101000a81548173ffffffffffffffffffffffffffffffffffffffff021916908373ffffffffffffffffffffffffffffffffffffffff160217905550610a32336001611bcb90919063ffffffff16565b505050565b60058181548110610a4757600080fd5b9060005260206000209060030201600091509050806000018054610a6a906127de565b80601f0160208091040260200160405190810160405280929190818152602001828054610a96906127de565b8015610ae35780601f10610ab857610100808354040283529160200191610ae3565b820191906000526020600020905b815481529060010190602001808311610ac657829003601f168201915b505050505090806001018054610af8906127de565b80601f0160208091040260200160405190810160405280929190818152602001828054610b24906127de565b8015610b715780601f10610b4657610100808354040283529160200191610b71565b820191906000526020600020905b815481529060010190602001808311610b5457829003601f168201915b5050505050908060020154905083565b610b95336000611c7390919063ffffffff16565b610bd4576040517f08c379a0000000000000000000000000000000000000000000000000000000008152600401610bcb90612c2e565b60405180910390fd5b6000600282604051610be69190612c8a565b9081526020016040518091039020905081816000019081610c079190612b10565b50600081600201819055505050565b606080600080600285604051610c2c9190612c8a565b908152602001604051809103902090508060030181600101826002015482805480602002602001604051908101604052809291908181526020016000905b82821015610dca5783829060005260206000209060030201604051806060016040529081600082018054610c9d906127de565b80601f0160208091040260200160405190810160405280929190818152602001828054610cc9906127de565b8015610d165780601f10610ceb57610100808354040283529160200191610d16565b820191906000526020600020905b815481529060010190602001808311610cf957829003601f168201915b50505050508152602001600182018054610d2f906127de565b80601f0160208091040260200160405190810160405280929190818152602001828054610d5b906127de565b8015610da85780601f10610d7d57610100808354040283529160200191610da8565b820191906000526020600020905b815481529060010190602001808311610d8b57829003601f168201915b5050505050815260200160028201548152505081526020019060010190610c6a565b50505050925081805480602002602001604051908101604052809291908181526020018280548015610e5157602002820191906000526020600020905b8160009054906101000a900473ffffffffffffffffffffffffffffffffffffffff1673ffffffffffffffffffffffffffffffffffffffff1681526020019060010190808311610e07575b50505050509150935093509350509193909250565b60606000600283604051610e7a9190612c8a565b908152602001604051809103902090506000816003018054905067ffffffffffffffff811115610ead57610eac612161565b5b604051908082528060200260200182016040528015610ee657816020015b610ed3611d81565b815260200190600190039081610ecb5790505b50905060005b82600301805490508110156110a9576004836003018281548110610f1357610f12612780565b5b9060005260206000209060030201600001604051610f319190612d24565b9081526020016040518091039020604051806060016040529081600082018054610f5a906127de565b80601f0160208091040260200160405190810160405280929190818152602001828054610f86906127de565b8015610fd35780601f10610fa857610100808354040283529160200191610fd3565b820191906000526020600020905b815481529060010190602001808311610fb657829003601f168201915b50505050508152602001600182018054610fec906127de565b80601f0160208091040260200160405190810160405280929190818152602001828054611018906127de565b80156110655780601f1061103a57610100808354040283529160200191611065565b820191906000526020600020905b81548152906001019060200180831161104857829003601f168201915b5050505050815260200160028201548152505082828151811061108b5761108a612780565b5b602002602001018190525080806110a19061283e565b915050610eec565b508092505050919050565b6001600360008373ffffffffffffffffffffffffffffffffffffffff1673ffffffffffffffffffffffffffffffffffffffff16815260200190815260200160002060040160006101000a81548160ff02191690831515021790555050565b61111a611d3a565b61112e336000611c7390919063ffffffff16565b1561116e576040517f08c379a0000000000000000000000000000000000000000000000000000000008152600401611165906128d2565b60405180910390fd5b611182336001611c7390919063ffffffff16565b6111c1576040517f08c379a00000000000000000000000000000000000000000000000000000000081526004016111b890612d87565b60405180910390fd5b6000600360003373ffffffffffffffffffffffffffffffffffffffff1673ffffffffffffffffffffffffffffffffffffffff1681526020019081526020016000206040518060a00160405290816000820160009054906101000a900473ffffffffffffffffffffffffffffffffffffffff1673ffffffffffffffffffffffffffffffffffffffff1673ffffffffffffffffffffffffffffffffffffffff168152602001600182018054611273906127de565b80601f016020809104026020016040519081016040528092919081815260200182805461129f906127de565b80156112ec5780601f106112c1576101008083540402835291602001916112ec565b820191906000526020600020905b8154815290600101906020018083116112cf57829003601f168201915b50505050508152602001600282018054611305906127de565b80601f0160208091040260200160405190810160405280929190818152602001828054611331906127de565b801561137e5780601f106113535761010080835404028352916020019161137e565b820191906000526020600020905b81548152906001019060200180831161136157829003601f168201915b50505050508152602001600382015481526020016004820160009054906101000a900460ff1615151515815250509050836040516020016113bf9190612c8a565b6040516020818303038152906040528051906020012081602001516040516020016113ea9190612c8a565b6040516020818303038152906040528051906020012014801561145c5750826040516020016114199190612c8a565b6040516020818303038152906040528051906020012081604001516040516020016114449190612c8a565b60405160208183030381529060405280519060200120145b1561146a5780915050611657565b600360008073ffffffffffffffffffffffffffffffffffffffff1673ffffffffffffffffffffffffffffffffffffffff1681526020019081526020016000206040518060a00160405290816000820160009054906101000a900473ffffffffffffffffffffffffffffffffffffffff1673ffffffffffffffffffffffffffffffffffffffff1673ffffffffffffffffffffffffffffffffffffffff16815260200160018201805461151a906127de565b80601f0160208091040260200160405190810160405280929190818152602001828054611546906127de565b80156115935780601f1061156857610100808354040283529160200191611593565b820191906000526020600020905b81548152906001019060200180831161157657829003601f168201915b505050505081526020016002820180546115ac906127de565b80601f01602080910402602001604051908101604052809291908181526020018280546115d8906127de565b80156116255780601f106115fa57610100808354040283529160200191611625565b820191906000526020600020905b81548152906001019060200180831161160857829003601f168201915b50505050508152602001600382015481526020016004820160009054906101000a900460ff1615151515815250509150505b92915050565b6006818154811061166d57600080fd5b9060005260206000209060050201600091509050806000018054611690906127de565b80601f01602080910402602001604051908101604052809291908181526020018280546116bc906127de565b80156117095780601f106116de57610100808354040283529160200191611709565b820191906000526020600020905b8154815290600101906020018083116116ec57829003601f168201915b5050505050908060020154905082565b60006012821061172c5760019050611731565b600090505b919050565b6000814210611748576001905061174d565b600090505b919050565b611766336000611c7390919063ffffffff16565b6117a5576040517f08c379a000000000000000000000000000000000000000000000000000000000815260040161179c90612df3565b60405180910390fd5b60006004846040516117b79190612c8a565b90815260200160405180910390209050838160000190816117d89190612b10565b50828160010190816117ea9190612b10565b506000816002018190555060006002836040516118079190612c8a565b9081526020016040518091039020905080600301829080600181540180825580915050600190039060005260206000209060030201600090919091909150600082018160000190816118599190612e29565b506001820181600101908161186e9190612e29565b506002820154816002015550506005829080600181540180825580915050600190039060005260206000209060030201600090919091909150600082018160000190816118bb9190612e29565b50600182018160010190816118d09190612e29565b506002820154816002015550505050505050565b60006118fa336000611c7390919063ffffffff16565b905090565b600060096040516020016119139190612d24565b604051602081830303815290604052805190602001208260405160200161193a9190612c8a565b604051602081830303815290604052805190602001200361195e5760019050611963565b600090505b919050565b600061197e336001611c7390919063ffffffff16565b905090565b611997336001611c7390919063ffffffff16565b6119d6576040517f08c379a00000000000000000000000000000000000000000000000000000000081526004016119cd90612f5d565b60405180910390fd5b60006002826040516119e89190612c8a565b908152602001604051809103902090508060040160003373ffffffffffffffffffffffffffffffffffffffff1673ffffffffffffffffffffffffffffffffffffffff16815260200190815260200160002060009054906101000a900460ff1615611a87576040517f08c379a0000000000000000000000000000000000000000000000000000000008152600401611a7e90612fc9565b60405180910390fd5b6001600484604051611a999190612c8a565b90815260200160405180910390206002016000828254611ab99190612fe9565b925050819055506001816002016000828254611ad59190612fe9565b9250508190555080600101339080600181540180825580915050600190039060005260206000200160009091909190916101000a81548173ffffffffffffffffffffffffffffffffffffffff021916908373ffffffffffffffffffffffffffffffffffffffff16021790555060018160040160003373ffffffffffffffffffffffffffffffffffffffff1673ffffffffffffffffffffffffffffffffffffffff16815260200190815260200160002060006101000a81548160ff021916908315150217905550505050565b6000600482604051611bb29190612c8a565b9081526020016040518091039020600201549050919050565b611bd58282611c73565b15611c15576040517f08c379a0000000000000000000000000000000000000000000000000000000008152600401611c0c90613069565b60405180910390fd5b60018260000160008373ffffffffffffffffffffffffffffffffffffffff1673ffffffffffffffffffffffffffffffffffffffff16815260200190815260200160002060006101000a81548160ff0219169083151502179055505050565b60008073ffffffffffffffffffffffffffffffffffffffff168273ffffffffffffffffffffffffffffffffffffffff1603611ce3576040517f08c379a0000000000000000000000000000000000000000000000000000000008152600401611cda906130fb565b60405180910390fd5b8260000160008373ffffffffffffffffffffffffffffffffffffffff1673ffffffffffffffffffffffffffffffffffffffff16815260200190815260200160002060009054906101000a900460ff16905092915050565b6040518060a00160405280600073ffffffffffffffffffffffffffffffffffffffff1681526020016060815260200160608152602001600081526020016000151581525090565b60405180606001604052806060815260200160608152602001600081525090565b600081519050919050565b600082825260208201905092915050565b6000819050602082019050919050565b600073ffffffffffffffffffffffffffffffffffffffff82169050919050565b6000611df982611dce565b9050919050565b611e0981611dee565b82525050565b600081519050919050565b600082825260208201905092915050565b60005b83811015611e49578082015181840152602081019050611e2e565b60008484015250505050565b6000601f19601f8301169050919050565b6000611e7182611e0f565b611e7b8185611e1a565b9350611e8b818560208601611e2b565b611e9481611e55565b840191505092915050565b6000819050919050565b611eb281611e9f565b82525050565b60008115159050919050565b611ecd81611eb8565b82525050565b600060a083016000830151611eeb6000860182611e00565b5060208301518482036020860152611f038282611e66565b91505060408301518482036040860152611f1d8282611e66565b9150506060830151611f326060860182611ea9565b506080830151611f456080860182611ec4565b508091505092915050565b6000611f5c8383611ed3565b905092915050565b6000602082019050919050565b6000611f7c82611da2565b611f868185611dad565b935083602082028501611f9885611dbe565b8060005b85811015611fd45784840389528151611fb58582611f50565b9450611fc083611f64565b925060208a01995050600181019050611f9c565b50829750879550505050505092915050565b600060208201905081810360008301526120008184611f71565b905092915050565b600081519050919050565b600082825260208201905092915050565b6000819050602082019050919050565b600060608301600083015184820360008601526120518282611e66565b9150506020830151848203602086015261206b8282611e66565b91505060408301516120806040860182611ea9565b508091505092915050565b60006120978383612034565b905092915050565b6000602082019050919050565b60006120b782612008565b6120c18185612013565b9350836020820285016120d385612024565b8060005b8581101561210f57848403895281516120f0858261208b565b94506120fb8361209f565b925060208a019950506001810190506120d7565b50829750879550505050505092915050565b6000602082019050818103600083015261213b81846120ac565b905092915050565b6000604051905090565b600080fd5b600080fd5b600080fd5b600080fd5b7f4e487b7100000000000000000000000000000000000000000000000000000000600052604160045260246000fd5b61219982611e55565b810181811067ffffffffffffffff821117156121b8576121b7612161565b5b80604052505050565b60006121cb612143565b90506121d78282612190565b919050565b600067ffffffffffffffff8211156121f7576121f6612161565b5b61220082611e55565b9050602081019050919050565b82818337600083830152505050565b600061222f61222a846121dc565b6121c1565b90508281526020810184848401111561224b5761224a61215c565b5b61225684828561220d565b509392505050565b600082601f83011261227357612272612157565b5b813561228384826020860161221c565b91505092915050565b600080604083850312156122a3576122a261214d565b5b600083013567ffffffffffffffff8111156122c1576122c0612152565b5b6122cd8582860161225e565b925050602083013567ffffffffffffffff8111156122ee576122ed612152565b5b6122fa8582860161225e565b9150509250929050565b61230d81611e9f565b811461231857600080fd5b50565b60008135905061232a81612304565b92915050565b6000602082840312156123465761234561214d565b5b60006123548482850161231b565b91505092915050565b600082825260208201905092915050565b600061237982611e0f565b612383818561235d565b9350612393818560208601611e2b565b61239c81611e55565b840191505092915050565b6123b081611e9f565b82525050565b600060608201905081810360008301526123d0818661236e565b905081810360208301526123e4818561236e565b90506123f360408301846123a7565b949350505050565b6000602082840312156124115761241061214d565b5b600082013567ffffffffffffffff81111561242f5761242e612152565b5b61243b8482850161225e565b91505092915050565b600081519050919050565b600082825260208201905092915050565b6000819050602082019050919050565b600061247c8383611e00565b60208301905092915050565b6000602082019050919050565b60006124a082612444565b6124aa818561244f565b93506124b583612460565b8060005b838110156124e65781516124cd8882612470565b97506124d883612488565b9250506001810190506124b9565b5085935050505092915050565b6000606082019050818103600083015261250d81866120ac565b905081810360208301526125218185612495565b905061253060408301846123a7565b949350505050565b61254181611dee565b811461254c57600080fd5b50565b60008135905061255e81612538565b92915050565b60006020828403121561257a5761257961214d565b5b60006125888482850161254f565b91505092915050565b600060a0830160008301516125a96000860182611e00565b50602083015184820360208601526125c18282611e66565b915050604083015184820360408601526125db8282611e66565b91505060608301516125f06060860182611ea9565b5060808301516126036080860182611ec4565b508091505092915050565b600060208201905081810360008301526126288184612591565b905092915050565b6000604082019050818103600083015261264a818561236e565b905061265960208301846123a7565b9392505050565b61266981611eb8565b82525050565b60006020820190506126846000830184612660565b92915050565b6000806000606084860312156126a3576126a261214d565b5b600084013567ffffffffffffffff8111156126c1576126c0612152565b5b6126cd8682870161225e565b935050602084013567ffffffffffffffff8111156126ee576126ed612152565b5b6126fa8682870161225e565b925050604084013567ffffffffffffffff81111561271b5761271a612152565b5b6127278682870161225e565b9150509250925092565b6000819050919050565b61274481612731565b82525050565b600060208201905061275f600083018461273b565b92915050565b600060208201905061277a60008301846123a7565b92915050565b7f4e487b7100000000000000000000000000000000000000000000000000000000600052603260045260246000fd5b7f4e487b7100000000000000000000000000000000000000000000000000000000600052602260045260246000fd5b600060028204905060018216806127f657607f821691505b602082108103612809576128086127af565b5b50919050565b7f4e487b7100000000000000000000000000000000000000000000000000000000600052601160045260246000fd5b600061284982611e9f565b91507fffffffffffffffffffffffffffffffffffffffffffffffffffffffffffffffff820361287b5761287a61280f565b5b600182019050919050565b7f436f6e6e65637465642061732041646d696e0000000000000000000000000000600082015250565b60006128bc60128361235d565b91506128c782612886565b602082019050919050565b600060208201905081810360008301526128eb816128af565b9050919050565b7f416c7265616479206578697374696e6720757365720000000000000000000000600082015250565b600061292860158361235d565b9150612933826128f2565b602082019050919050565b600060208201905081810360008301526129578161291b565b9050919050565b60008190508160005260206000209050919050565b60006020601f8301049050919050565b60008160020a8302905092915050565b6000600883026129c37fffffffffffffffffffffffffffffffffffffffffffffffffffffffffffffffff82612983565b6129cd8683612983565b95508019841693508086168417925050509392505050565b6000819050919050565b6000612a0a612a05612a0084611e9f565b6129e5565b611e9f565b9050919050565b6000819050919050565b612a24836129ef565b612a38612a3082612a11565b848454612993565b825550505050565b600090565b612a4d612a40565b612a58818484612a1b565b505050565b5b81811015612a7c57612a71600082612a45565b600181019050612a5e565b5050565b601f821115612ac157612a928161295e565b612a9b84612973565b81016020851015612aaa578190505b612abe612ab685612973565b830182612a5d565b50505b505050565b60008160020a8304905092915050565b6000612ae760001984600802612ac6565b1980831691505092915050565b6000612b008383612ad6565b9150826002028217905092915050565b612b1982611e0f565b67ffffffffffffffff811115612b3257612b31612161565b5b612b3c82546127de565b612b47828285612a80565b600060209050601f831160018114612b7a5760008415612b68578287015190505b612b728582612af4565b865550612bda565b601f198416612b888661295e565b60005b82811015612bb057848901518255600182019150602085019450602081019050612b8b565b86831015612bcd5784890151612bc9601f891682612ad6565b8355505b6001600288020188555050505b505050505050565b7f6f6e6c792061646d696e2063616e2061646420456c656374696f6e0000000000600082015250565b6000612c18601b8361235d565b9150612c2382612be2565b602082019050919050565b60006020820190508181036000830152612c4781612c0b565b9050919050565b600081905092915050565b6000612c6482611e0f565b612c6e8185612c4e565b9350612c7e818560208601611e2b565b80840191505092915050565b6000612c968284612c59565b915081905092915050565b60008154612cae816127de565b612cb88186612c4e565b94506001821660008114612cd35760018114612ce857612d1b565b60ff1983168652811515820286019350612d1b565b612cf18561295e565b60005b83811015612d1357815481890152600182019150602081019050612cf4565b838801955050505b50505092915050565b6000612d308284612ca1565b915081905092915050565b7f4e6f742061207265676973746572656420766f74657200000000000000000000600082015250565b6000612d7160168361235d565b9150612d7c82612d3b565b602082019050919050565b60006020820190508181036000830152612da081612d64565b9050919050565b7f6f6e6c792061646d696e2063616e206164642043616e64696461746573000000600082015250565b6000612ddd601d8361235d565b9150612de882612da7565b602082019050919050565b60006020820190508181036000830152612e0c81612dd0565b9050919050565b600081549050612e22816127de565b9050919050565b818103612e37575050612f0f565b612e4082612e13565b67ffffffffffffffff811115612e5957612e58612161565b5b612e6382546127de565b612e6e828285612a80565b6000601f831160018114612e9d5760008415612e8b578287015490505b612e958582612af4565b865550612f08565b601f198416612eab8761295e565b9650612eb68661295e565b60005b82811015612ede57848901548255600182019150600185019450602081019050612eb9565b86831015612efb5784890154612ef7601f891682612ad6565b8355505b6001600288020188555050505b5050505050505b565b7f5573756172696f206e6f207265676973747261646f0000000000000000000000600082015250565b6000612f4760158361235d565b9150612f5282612f11565b602082019050919050565b60006020820190508181036000830152612f7681612f3a565b9050919050565b7f557374656420796120686120766f7461646f0000000000000000000000000000600082015250565b6000612fb360128361235d565b9150612fbe82612f7d565b602082019050919050565b60006020820190508181036000830152612fe281612fa6565b9050919050565b6000612ff482611e9f565b9150612fff83611e9f565b92508282019050808211156130175761301661280f565b5b92915050565b7f526f6c65733a206163636f756e7420616c72656164792068617320726f6c6500600082015250565b6000613053601f8361235d565b915061305e8261301d565b602082019050919050565b6000602082019050818103600083015261308281613046565b9050919050565b7f526f6c65733a206163636f756e7420697320746865207a65726f20616464726560008201527f7373000000000000000000000000000000000000000000000000000000000000602082015250565b60006130e560228361235d565b91506130f082613089565b604082019050919050565b60006020820190508181036000830152613114816130d8565b905091905056fea264697066735822122019c0f44eac663fbdac6e15f1cc62f2741939ab2027e23d911a55a4522e110c1964736f6c63430008110033",
  "immutableReferences": {},
  "source": "// SPDX-License-Identifier: MIT\r\npragma solidity >=0.4.22 <0.9.0;\r\n\r\nimport './Roles.sol';\r\n\r\nerror VerifyAgeError(uint age);\r\nerror VotingEndedError(uint votingEndTime);\r\n\r\ncontract Voting {\r\n\r\n    using Roles for Roles.Role;\r\n\r\n    Roles.Role private adminRole;\r\n    Roles.Role private userRole;\r\n\r\n\r\n    struct User {\r\n        address key;\r\n        string nationalId;\r\n        string pwd;\r\n        uint age;\r\n        bool isActive;\r\n    }\r\n\r\n    struct Candidate {\r\n        string id;\r\n        string name;\r\n        uint voteCount;\r\n    }\r\n\r\n    struct Election {\r\n        string id;\r\n        address[] voters;\r\n        uint votes;\r\n        Candidate[] candidates;\r\n        mapping(address => bool) Voters;\r\n    }\r\n\r\n\r\n\r\n    mapping(string => Election) ElectionsMap;\r\n    mapping(address => User) UsersMap;\r\n    mapping(string => Candidate) CandidatesMap;\r\n    // mapping(address => bool) Voters;\r\n\r\n    Candidate[] public candidates;\r\n    Election[] public elections;\r\n    address[] private users;\r\n    address adminId;\r\n    string adminPwd;\r\n\r\n    constructor() {\r\n        adminId = msg.sender;\r\n        adminRole.add(adminId);\r\n        adminPwd = \"admin\";\r\n    }\r\n\r\n    function isAdmin() public view returns (bool){\r\n        return adminRole.has(msg.sender);\r\n    }\r\n\r\n    function isVoter() public view returns (bool){\r\n        return userRole.has(msg.sender);\r\n    }\r\n\r\n\r\n    function adminLogin(string memory pwd) public view returns (int){\r\n        if (keccak256(abi.encodePacked(pwd)) == keccak256(abi.encodePacked(adminPwd))) {\r\n            return 1;\r\n        }\r\n        else {\r\n            return 0;\r\n        }\r\n    }\r\n\r\n    function addElection(string memory id) public {\r\n        require(adminRole.has(msg.sender), \"only admin can add Election\");\r\n        Election storage election = ElectionsMap[id];\r\n        election.id = id;\r\n        election.votes = 0;\r\n\r\n    }\r\n\r\n    function getElection(string memory eId) public view returns (Candidate[] memory, address[] memory, uint){\r\n        Election storage election = ElectionsMap[eId];\r\n\r\n        return (election.candidates, election.voters, election.votes);\r\n    }\r\n\r\n    function addUser(string memory nationalId, string memory pwd) public {\r\n        if (adminRole.has(msg.sender)) revert(\"Connected as Admin\");\r\n        if (userRole.has(msg.sender)) revert(\"Already existing user\");\r\n\r\n        User storage user = UsersMap[msg.sender];\r\n        user.nationalId = nationalId;\r\n        user.key = msg.sender;\r\n        user.pwd = pwd;\r\n        user.isActive = false;\r\n\r\n        users.push(msg.sender);\r\n\r\n        userRole.add(msg.sender);\r\n    }\r\n\r\n    function verifyUser(address _voter) public {\r\n        UsersMap[_voter].isActive = true;\r\n    }\r\n\r\n    function login(string memory nationalId, string memory pwd) public view returns (User memory){\r\n        require(!adminRole.has(msg.sender), \"Connected as Admin\");\r\n        require(userRole.has(msg.sender), \"Not a registered voter\");\r\n\r\n        User memory user = UsersMap[msg.sender];\r\n\r\n        if (keccak256(abi.encodePacked(user.nationalId)) ==\r\n        keccak256(abi.encodePacked(nationalId)) &&\r\n            keccak256(abi.encodePacked(user.pwd)) ==\r\n            keccak256(abi.encodePacked(pwd)))\r\n            return user;\r\n        return UsersMap[address(0)];\r\n    }\r\n\r\n    function getUsers() public view returns (User[] memory){\r\n        User[] memory _users = new User[](users.length);\r\n        for (uint i = 0; i < users.length; i++) {\r\n            _users[i] = UsersMap[users[i]];\r\n        }\r\n        return _users;\r\n    }\r\n\r\n    function addCandidate(string memory id, string memory name, string memory eId) public {\r\n        require(adminRole.has(msg.sender), \"only admin can add Candidates\");\r\n        Candidate storage candidate = CandidatesMap[id];\r\n        candidate.id = id;\r\n        candidate.name = name;\r\n        candidate.voteCount = 0;\r\n\r\n        Election storage election = ElectionsMap[eId];\r\n        election.candidates.push(candidate);\r\n\r\n        candidates.push(candidate);\r\n    }\r\n\r\n    function getCandidates() public view returns (Candidate[] memory){\r\n        return candidates;\r\n    }\r\n\r\n    function getCandidateVotes(string memory id) public view returns (uint){\r\n        return CandidatesMap[id].voteCount;\r\n    }\r\n\r\n    function vote(string memory cId, string memory eId ) public {\r\n\r\n        require(userRole.has(msg.sender), \"Usuario no registrado\");\r\n        Election storage election = ElectionsMap[eId];\r\n        require(!election.Voters[msg.sender], \"Usted ya ha votado\");\r\n        CandidatesMap[cId].voteCount += 1;\r\n        election.votes += 1;\r\n        election.voters.push(msg.sender);\r\n        election.Voters[msg.sender] = true;\r\n\r\n        \r\n    }\r\n\r\n    function getResult(string memory _eId) public view returns (Candidate[] memory)  {\r\n        Election storage _election = ElectionsMap[_eId];\r\n        Candidate[] memory _candidates = new Candidate[](_election.candidates.length);\r\n\r\n        for (uint i = 0; i < _election.candidates.length; i++) {\r\n            _candidates[i] = CandidatesMap[_election.candidates[i].id];\r\n        }\r\n\r\n        return _candidates;\r\n    }\r\n\r\n    // function to verify age of voter and return true if age is greater than 18 years old and false if not \r\n    function verifyAge(uint age) public pure returns (bool){\r\n        if (age >= 18) {\r\n            \r\n             return true;\r\n        }\r\n        else {\r\n             return false;\r\n        }\r\n    }\r\n\r\n\r\n    function hasVotingEnded(uint votingEndTime) public view returns (bool) {\r\n       if (block.timestamp >= votingEndTime) {\r\n           return true;\r\n       } else {\r\n           return false;\r\n       }\r\n    }\r\n    \r\n  \r\n   \r\n    \r\n\r\n}",
  "sourcePath": "C:\\Users\\clope\\OneDrive\\Documentos\\Programacion\\TesisV1.0\\evotingec\\Client\\contracts\\Voting.sol",
  "compiler": {
    "name": "solc",
    "version": "0.8.17+commit.8df45f5f.Emscripten.clang"
  },
  "schemaVersion": "3.4.14",
  "updatedAt": "2023-09-03T23:20:39.854Z",
  "devdoc": {
    "kind": "dev",
    "methods": {},
    "version": 1
  },
  "userdoc": {
    "kind": "user",
    "methods": {},
    "version": 1
  }
}