{
  "contractName": "Voting",
  "abi": [
    {
      "inputs": [],
      "stateMutability": "nonpayable",
      "type": "constructor"
    },
    {
      "inputs": [
        {
          "internalType": "uint256",
          "name": "",
          "type": "uint256"
        }
      ],
      "name": "candidates",
      "outputs": [
        {
          "internalType": "string",
          "name": "id",
          "type": "string"
        },
        {
          "internalType": "string",
          "name": "name",
          "type": "string"
        },
        {
          "internalType": "uint256",
          "name": "voteCount",
          "type": "uint256"
        }
      ],
      "stateMutability": "view",
      "type": "function",
      "constant": true
    },
    {
      "inputs": [
        {
          "internalType": "uint256",
          "name": "",
          "type": "uint256"
        }
      ],
      "name": "elections",
      "outputs": [
        {
          "internalType": "string",
          "name": "id",
          "type": "string"
        },
        {
          "internalType": "uint256",
          "name": "votes",
          "type": "uint256"
        }
      ],
      "stateMutability": "view",
      "type": "function",
      "constant": true
    },
    {
      "inputs": [],
      "name": "isAdmin",
      "outputs": [
        {
          "internalType": "bool",
          "name": "",
          "type": "bool"
        }
      ],
      "stateMutability": "view",
      "type": "function",
      "constant": true
    },
    {
      "inputs": [],
      "name": "isVoter",
      "outputs": [
        {
          "internalType": "bool",
          "name": "",
          "type": "bool"
        }
      ],
      "stateMutability": "view",
      "type": "function",
      "constant": true
    },
    {
      "inputs": [
        {
          "internalType": "string",
          "name": "pwd",
          "type": "string"
        }
      ],
      "name": "adminLogin",
      "outputs": [
        {
          "internalType": "int256",
          "name": "",
          "type": "int256"
        }
      ],
      "stateMutability": "view",
      "type": "function",
      "constant": true
    },
    {
      "inputs": [
        {
          "internalType": "string",
          "name": "id",
          "type": "string"
        }
      ],
      "name": "addElection",
      "outputs": [],
      "stateMutability": "nonpayable",
      "type": "function"
    },
    {
      "inputs": [
        {
          "internalType": "string",
          "name": "eId",
          "type": "string"
        }
      ],
      "name": "getElection",
      "outputs": [
        {
          "components": [
            {
              "internalType": "string",
              "name": "id",
              "type": "string"
            },
            {
              "internalType": "string",
              "name": "name",
              "type": "string"
            },
            {
              "internalType": "uint256",
              "name": "voteCount",
              "type": "uint256"
            }
          ],
          "internalType": "struct Voting.Candidate[]",
          "name": "",
          "type": "tuple[]"
        },
        {
          "internalType": "address[]",
          "name": "",
          "type": "address[]"
        },
        {
          "internalType": "uint256",
          "name": "",
          "type": "uint256"
        }
      ],
      "stateMutability": "view",
      "type": "function",
      "constant": true
    },
    {
      "inputs": [
        {
          "internalType": "string",
          "name": "nationalId",
          "type": "string"
        },
        {
          "internalType": "string",
          "name": "pwd",
          "type": "string"
        }
      ],
      "name": "addUser",
      "outputs": [],
      "stateMutability": "nonpayable",
      "type": "function"
    },
    {
      "inputs": [
        {
          "internalType": "address",
          "name": "_voter",
          "type": "address"
        }
      ],
      "name": "verifyUser",
      "outputs": [],
      "stateMutability": "nonpayable",
      "type": "function"
    },
    {
      "inputs": [
        {
          "internalType": "string",
          "name": "nationalId",
          "type": "string"
        },
        {
          "internalType": "string",
          "name": "pwd",
          "type": "string"
        }
      ],
      "name": "login",
      "outputs": [
        {
          "components": [
            {
              "internalType": "address",
              "name": "key",
              "type": "address"
            },
            {
              "internalType": "string",
              "name": "nationalId",
              "type": "string"
            },
            {
              "internalType": "bytes32",
              "name": "pwd",
              "type": "bytes32"
            },
            {
              "internalType": "uint256",
              "name": "age",
              "type": "uint256"
            },
            {
              "internalType": "bool",
              "name": "isActive",
              "type": "bool"
            }
          ],
          "internalType": "struct Voting.User",
          "name": "",
          "type": "tuple"
        }
      ],
      "stateMutability": "view",
      "type": "function",
      "constant": true
    },
    {
      "inputs": [],
      "name": "getUsers",
      "outputs": [
        {
          "components": [
            {
              "internalType": "address",
              "name": "key",
              "type": "address"
            },
            {
              "internalType": "string",
              "name": "nationalId",
              "type": "string"
            },
            {
              "internalType": "bytes32",
              "name": "pwd",
              "type": "bytes32"
            },
            {
              "internalType": "uint256",
              "name": "age",
              "type": "uint256"
            },
            {
              "internalType": "bool",
              "name": "isActive",
              "type": "bool"
            }
          ],
          "internalType": "struct Voting.User[]",
          "name": "",
          "type": "tuple[]"
        }
      ],
      "stateMutability": "view",
      "type": "function",
      "constant": true
    },
    {
      "inputs": [
        {
          "internalType": "string",
          "name": "id",
          "type": "string"
        },
        {
          "internalType": "string",
          "name": "name",
          "type": "string"
        },
        {
          "internalType": "string",
          "name": "eId",
          "type": "string"
        }
      ],
      "name": "addCandidate",
      "outputs": [],
      "stateMutability": "nonpayable",
      "type": "function"
    },
    {
      "inputs": [],
      "name": "getCandidates",
      "outputs": [
        {
          "components": [
            {
              "internalType": "string",
              "name": "id",
              "type": "string"
            },
            {
              "internalType": "string",
              "name": "name",
              "type": "string"
            },
            {
              "internalType": "uint256",
              "name": "voteCount",
              "type": "uint256"
            }
          ],
          "internalType": "struct Voting.Candidate[]",
          "name": "",
          "type": "tuple[]"
        }
      ],
      "stateMutability": "view",
      "type": "function",
      "constant": true
    },
    {
      "inputs": [
        {
          "internalType": "string",
          "name": "id",
          "type": "string"
        }
      ],
      "name": "getCandidateVotes",
      "outputs": [
        {
          "internalType": "uint256",
          "name": "",
          "type": "uint256"
        }
      ],
      "stateMutability": "view",
      "type": "function",
      "constant": true
    },
    {
      "inputs": [
        {
          "internalType": "string",
          "name": "cId",
          "type": "string"
        },
        {
          "internalType": "string",
          "name": "eId",
          "type": "string"
        }
      ],
      "name": "vote",
      "outputs": [],
      "stateMutability": "nonpayable",
      "type": "function"
    },
    {
      "inputs": [
        {
          "internalType": "string",
          "name": "_eId",
          "type": "string"
        }
      ],
      "name": "getResult",
      "outputs": [
        {
          "components": [
            {
              "internalType": "string",
              "name": "id",
              "type": "string"
            },
            {
              "internalType": "string",
              "name": "name",
              "type": "string"
            },
            {
              "internalType": "uint256",
              "name": "voteCount",
              "type": "uint256"
            }
          ],
          "internalType": "struct Voting.Candidate[]",
          "name": "",
          "type": "tuple[]"
        }
      ],
      "stateMutability": "view",
      "type": "function",
      "constant": true
    },
    {
      "inputs": [
        {
          "internalType": "uint256",
          "name": "age",
          "type": "uint256"
        }
      ],
      "name": "verifyAge",
      "outputs": [
        {
          "internalType": "bool",
          "name": "",
          "type": "bool"
        }
      ],
      "stateMutability": "pure",
      "type": "function",
      "constant": true
    },
    {
      "inputs": [
        {
          "internalType": "uint256",
          "name": "votingEndTime",
          "type": "uint256"
        }
      ],
      "name": "hasVotingEnded",
      "outputs": [
        {
          "internalType": "bool",
          "name": "",
          "type": "bool"
        }
      ],
      "stateMutability": "view",
      "type": "function",
      "constant": true
    }
  ],
  "bytecode": "0x60806040523480156200001157600080fd5b5033600860006101000a81548173ffffffffffffffffffffffffffffffffffffffff021916908373ffffffffffffffffffffffffffffffffffffffff16021790555062000099600860009054906101000a900473ffffffffffffffffffffffffffffffffffffffff166000620000e66401000000000262001a2a179091906401000000009004565b6040518060400160405280600581526020017f61646d696e00000000000000000000000000000000000000000000000000000081525060099081620000df9190620004ec565b50620006ee565b620001018282620001a2640100000000026401000000009004565b1562000144576040517f08c379a00000000000000000000000000000000000000000000000000000000081526004016200013b9062000634565b60405180910390fd5b60018260000160008373ffffffffffffffffffffffffffffffffffffffff1673ffffffffffffffffffffffffffffffffffffffff16815260200190815260200160002060006101000a81548160ff0219169083151502179055505050565b60008073ffffffffffffffffffffffffffffffffffffffff168273ffffffffffffffffffffffffffffffffffffffff160362000215576040517f08c379a00000000000000000000000000000000000000000000000000000000081526004016200020c90620006cc565b60405180910390fd5b8260000160008373ffffffffffffffffffffffffffffffffffffffff1673ffffffffffffffffffffffffffffffffffffffff16815260200190815260200160002060009054906101000a900460ff16905092915050565b600081519050919050565b7f4e487b7100000000000000000000000000000000000000000000000000000000600052604160045260246000fd5b7f4e487b7100000000000000000000000000000000000000000000000000000000600052602260045260246000fd5b60006002820490506001821680620002ee57607f821691505b602082108103620003045762000303620002a6565b5b50919050565b60008190508160005260206000209050919050565b60006020601f8301049050919050565b60008160020a8302905092915050565b600060088302620003717fffffffffffffffffffffffffffffffffffffffffffffffffffffffffffffffff826200032f565b6200037d86836200032f565b95508019841693508086168417925050509392505050565b6000819050919050565b6000819050919050565b6000620003ca620003c4620003be8462000395565b6200039f565b62000395565b9050919050565b6000819050919050565b620003e683620003a9565b620003fe620003f582620003d1565b8484546200033f565b825550505050565b600090565b6200041562000406565b62000422818484620003db565b505050565b5b818110156200044a576200043e6000826200040b565b60018101905062000428565b5050565b601f821115620004995762000463816200030a565b6200046e846200031f565b810160208510156200047e578190505b620004966200048d856200031f565b83018262000427565b50505b505050565b60008160020a8304905092915050565b6000620004c1600019846008026200049e565b1980831691505092915050565b6000620004dc8383620004ae565b9150826002028217905092915050565b620004f7826200026c565b67ffffffffffffffff81111562000513576200051262000277565b5b6200051f8254620002d5565b6200052c8282856200044e565b600060209050601f8311600181146200056457600084156200054f578287015190505b6200055b8582620004ce565b865550620005cb565b601f19841662000574866200030a565b60005b828110156200059e5784890151825560018201915060208501945060208101905062000577565b86831015620005be5784890151620005ba601f891682620004ae565b8355505b6001600288020188555050505b505050505050565b600082825260208201905092915050565b7f526f6c65733a206163636f756e7420616c72656164792068617320726f6c6500600082015250565b60006200061c601f83620005d3565b91506200062982620005e4565b602082019050919050565b600060208201905081810360008301526200064f816200060d565b9050919050565b7f526f6c65733a206163636f756e7420697320746865207a65726f20616464726560008201527f7373000000000000000000000000000000000000000000000000000000000000602082015250565b6000620006b4602283620005d3565b9150620006c18262000656565b604082019050919050565b60006020820190508181036000830152620006e781620006a5565b9050919050565b61305080620006fe6000396000f3fe608060405234801561001057600080fd5b5060043610610132576000357c0100000000000000000000000000000000000000000000000000000000900480635e6fef01116100bf578063b6db75a01161008e578063b6db75a014610338578063d3c43b6214610356578063d87c4be314610386578063e8d5940d146103a4578063e962414f146103c057610132565b80635e6fef011461028b5780636912a50e146102bc5780638b4a271c146102ec578063ad71f8dc1461031c57610132565b8063358b9d9711610106578063358b9d97146101c15780634771b573146101dd578063498cc70d1461020f5780634d8131201461023f57806358467dbc1461025b57610132565b8062ce8e3e1461013757806306a49fce14610155578063079eaf34146101735780633477ee2e1461018f575b600080fd5b61013f6103f0565b60405161014c9190611e5a565b60405180910390f35b61015d610637565b60405161016a9190611f95565b60405180910390f35b61018d60048036038101906101889190612100565b6107c4565b005b6101a960048036038101906101a491906121a4565b6109cc565b6040516101b89392919061222a565b60405180910390f35b6101db60048036038101906101d6919061226f565b610b16565b005b6101f760048036038101906101f2919061226f565b610bab565b60405161020693929190612367565b60405180910390f35b6102296004803603810190610224919061226f565b610dfb565b6040516102369190611f95565b60405180910390f35b610259600480360381019061025491906123d8565b611049565b005b61027560048036038101906102709190612100565b6110a7565b604051610282919061247b565b60405180910390f35b6102a560048036038101906102a091906121a4565b6114bc565b6040516102b392919061249d565b60405180910390f35b6102d660048036038101906102d191906121a4565b611578565b6040516102e391906124dc565b60405180910390f35b610306600480360381019061030191906121a4565b611595565b60405161031391906124dc565b60405180910390f35b610336600480360381019061033191906124f7565b6115b1565b005b610340611743565b60405161034d91906124dc565b60405180910390f35b610370600480360381019061036b919061226f565b61175e565b60405161037d91906125b7565b60405180910390f35b61038e6117c7565b60405161039b91906124dc565b60405180910390f35b6103be60048036038101906103b99190612100565b6117e2565b005b6103da60048036038101906103d5919061226f565b6119ff565b6040516103e791906125d2565b60405180910390f35b6060600060078054905067ffffffffffffffff81111561041357610412611fd5565b5b60405190808252806020026020018201604052801561044c57816020015b610439611b99565b8152602001906001900390816104315790505b50905060005b60078054905081101561062f576003600060078381548110610477576104766125ed565b5b9060005260206000200160009054906101000a900473ffffffffffffffffffffffffffffffffffffffff1673ffffffffffffffffffffffffffffffffffffffff1673ffffffffffffffffffffffffffffffffffffffff1681526020019081526020016000206040518060a00160405290816000820160009054906101000a900473ffffffffffffffffffffffffffffffffffffffff1673ffffffffffffffffffffffffffffffffffffffff1673ffffffffffffffffffffffffffffffffffffffff16815260200160018201805461054d9061264b565b80601f01602080910402602001604051908101604052809291908181526020018280546105799061264b565b80156105c65780601f1061059b576101008083540402835291602001916105c6565b820191906000526020600020905b8154815290600101906020018083116105a957829003601f168201915b5050505050815260200160028201548152602001600382015481526020016004820160009054906101000a900460ff161515151581525050828281518110610611576106106125ed565b5b60200260200101819052508080610627906126ab565b915050610452565b508091505090565b60606005805480602002602001604051908101604052809291908181526020016000905b828210156107bb578382906000526020600020906003020160405180606001604052908160008201805461068e9061264b565b80601f01602080910402602001604051908101604052809291908181526020018280546106ba9061264b565b80156107075780601f106106dc57610100808354040283529160200191610707565b820191906000526020600020905b8154815290600101906020018083116106ea57829003601f168201915b505050505081526020016001820180546107209061264b565b80601f016020809104026020016040519081016040528092919081815260200182805461074c9061264b565b80156107995780601f1061076e57610100808354040283529160200191610799565b820191906000526020600020905b81548152906001019060200180831161077c57829003601f168201915b505050505081526020016002820154815250508152602001906001019061065b565b50505050905090565b6107d8336000611ad290919063ffffffff16565b15610818576040517f08c379a000000000000000000000000000000000000000000000000000000000815260040161080f90612765565b60405180910390fd5b61082c336001611ad290919063ffffffff16565b1561086c576040517f08c379a0000000000000000000000000000000000000000000000000000000008152600401610863906127d1565b60405180910390fd5b6000600360003373ffffffffffffffffffffffffffffffffffffffff1673ffffffffffffffffffffffffffffffffffffffff1681526020019081526020016000209050828160010190816108c091906129a3565b50338160000160006101000a81548173ffffffffffffffffffffffffffffffffffffffff021916908373ffffffffffffffffffffffffffffffffffffffff160217905550816040516020016109159190612ab1565b60405160208183030381529060405280519060200120816002018190555060008160040160006101000a81548160ff0219169083151502179055506007339080600181540180825580915050600190039060005260206000200160009091909190916101000a81548173ffffffffffffffffffffffffffffffffffffffff021916908373ffffffffffffffffffffffffffffffffffffffff1602179055506109c7336001611a2a90919063ffffffff16565b505050565b600581815481106109dc57600080fd5b90600052602060002090600302016000915090508060000180546109ff9061264b565b80601f0160208091040260200160405190810160405280929190818152602001828054610a2b9061264b565b8015610a785780601f10610a4d57610100808354040283529160200191610a78565b820191906000526020600020905b815481529060010190602001808311610a5b57829003601f168201915b505050505090806001018054610a8d9061264b565b80601f0160208091040260200160405190810160405280929190818152602001828054610ab99061264b565b8015610b065780601f10610adb57610100808354040283529160200191610b06565b820191906000526020600020905b815481529060010190602001808311610ae957829003601f168201915b5050505050908060020154905083565b610b2a336000611ad290919063ffffffff16565b610b69576040517f08c379a0000000000000000000000000000000000000000000000000000000008152600401610b6090612b14565b60405180910390fd5b6000600282604051610b7b9190612ab1565b9081526020016040518091039020905081816000019081610b9c91906129a3565b50600081600201819055505050565b606080600080600285604051610bc19190612ab1565b908152602001604051809103902090508060030181600101826002015482805480602002602001604051908101604052809291908181526020016000905b82821015610d5f5783829060005260206000209060030201604051806060016040529081600082018054610c329061264b565b80601f0160208091040260200160405190810160405280929190818152602001828054610c5e9061264b565b8015610cab5780601f10610c8057610100808354040283529160200191610cab565b820191906000526020600020905b815481529060010190602001808311610c8e57829003601f168201915b50505050508152602001600182018054610cc49061264b565b80601f0160208091040260200160405190810160405280929190818152602001828054610cf09061264b565b8015610d3d5780601f10610d1257610100808354040283529160200191610d3d565b820191906000526020600020905b815481529060010190602001808311610d2057829003601f168201915b5050505050815260200160028201548152505081526020019060010190610bff565b50505050925081805480602002602001604051908101604052809291908181526020018280548015610de657602002820191906000526020600020905b8160009054906101000a900473ffffffffffffffffffffffffffffffffffffffff1673ffffffffffffffffffffffffffffffffffffffff1681526020019060010190808311610d9c575b50505050509150935093509350509193909250565b60606000600283604051610e0f9190612ab1565b908152602001604051809103902090506000816003018054905067ffffffffffffffff811115610e4257610e41611fd5565b5b604051908082528060200260200182016040528015610e7b57816020015b610e68611be3565b815260200190600190039081610e605790505b50905060005b826003018054905081101561103e576004836003018281548110610ea857610ea76125ed565b5b9060005260206000209060030201600001604051610ec69190612bb7565b9081526020016040518091039020604051806060016040529081600082018054610eef9061264b565b80601f0160208091040260200160405190810160405280929190818152602001828054610f1b9061264b565b8015610f685780601f10610f3d57610100808354040283529160200191610f68565b820191906000526020600020905b815481529060010190602001808311610f4b57829003601f168201915b50505050508152602001600182018054610f819061264b565b80601f0160208091040260200160405190810160405280929190818152602001828054610fad9061264b565b8015610ffa5780601f10610fcf57610100808354040283529160200191610ffa565b820191906000526020600020905b815481529060010190602001808311610fdd57829003601f168201915b505050505081526020016002820154815250508282815181106110205761101f6125ed565b5b60200260200101819052508080611036906126ab565b915050610e81565b508092505050919050565b6001600360008373ffffffffffffffffffffffffffffffffffffffff1673ffffffffffffffffffffffffffffffffffffffff16815260200190815260200160002060040160006101000a81548160ff02191690831515021790555050565b6110af611b99565b6110c3336000611ad290919063ffffffff16565b15611103576040517f08c379a00000000000000000000000000000000000000000000000000000000081526004016110fa90612c1a565b60405180910390fd5b611117336001611ad290919063ffffffff16565b611156576040517f08c379a000000000000000000000000000000000000000000000000000000000815260040161114d90612c86565b60405180910390fd5b6000600360003373ffffffffffffffffffffffffffffffffffffffff1673ffffffffffffffffffffffffffffffffffffffff1681526020019081526020016000206040518060a00160405290816000820160009054906101000a900473ffffffffffffffffffffffffffffffffffffffff1673ffffffffffffffffffffffffffffffffffffffff1673ffffffffffffffffffffffffffffffffffffffff1681526020016001820180546112089061264b565b80601f01602080910402602001604051908101604052809291908181526020018280546112349061264b565b80156112815780601f1061125657610100808354040283529160200191611281565b820191906000526020600020905b81548152906001019060200180831161126457829003601f168201915b5050505050815260200160028201548152602001600382015481526020016004820160009054906101000a900460ff1615151515815250509050836040516020016112cc9190612ab1565b6040516020818303038152906040528051906020012081602001516040516020016112f79190612ab1565b60405160208183030381529060405280519060200120148015611343575080604001518360405160200161132b9190612ab1565b60405160208183030381529060405280519060200120145b1561135157809150506114b6565b600360008073ffffffffffffffffffffffffffffffffffffffff1673ffffffffffffffffffffffffffffffffffffffff1681526020019081526020016000206040518060a00160405290816000820160009054906101000a900473ffffffffffffffffffffffffffffffffffffffff1673ffffffffffffffffffffffffffffffffffffffff1673ffffffffffffffffffffffffffffffffffffffff1681526020016001820180546114019061264b565b80601f016020809104026020016040519081016040528092919081815260200182805461142d9061264b565b801561147a5780601f1061144f5761010080835404028352916020019161147a565b820191906000526020600020905b81548152906001019060200180831161145d57829003601f168201915b5050505050815260200160028201548152602001600382015481526020016004820160009054906101000a900460ff1615151515815250509150505b92915050565b600681815481106114cc57600080fd5b90600052602060002090600502016000915090508060000180546114ef9061264b565b80601f016020809104026020016040519081016040528092919081815260200182805461151b9061264b565b80156115685780601f1061153d57610100808354040283529160200191611568565b820191906000526020600020905b81548152906001019060200180831161154b57829003601f168201915b5050505050908060020154905082565b60006012821061158b5760019050611590565b600090505b919050565b60008142106115a757600190506115ac565b600090505b919050565b6115c5336000611ad290919063ffffffff16565b611604576040517f08c379a00000000000000000000000000000000000000000000000000000000081526004016115fb90612cf2565b60405180910390fd5b60006004846040516116169190612ab1565b908152602001604051809103902090508381600001908161163791906129a3565b508281600101908161164991906129a3565b506000816002018190555060006002836040516116669190612ab1565b9081526020016040518091039020905080600301829080600181540180825580915050600190039060005260206000209060030201600090919091909150600082018160000190816116b89190612d28565b50600182018160010190816116cd9190612d28565b5060028201548160020155505060058290806001815401808255809150506001900390600052602060002090600302016000909190919091506000820181600001908161171a9190612d28565b506001820181600101908161172f9190612d28565b506002820154816002015550505050505050565b6000611759336000611ad290919063ffffffff16565b905090565b600060096040516020016117729190612bb7565b60405160208183030381529060405280519060200120826040516020016117999190612ab1565b60405160208183030381529060405280519060200120036117bd57600190506117c2565b600090505b919050565b60006117dd336001611ad290919063ffffffff16565b905090565b6117f6336001611ad290919063ffffffff16565b611835576040517f08c379a000000000000000000000000000000000000000000000000000000000815260040161182c90612e5c565b60405180910390fd5b60006002826040516118479190612ab1565b908152602001604051809103902090508060040160003373ffffffffffffffffffffffffffffffffffffffff1673ffffffffffffffffffffffffffffffffffffffff16815260200190815260200160002060009054906101000a900460ff16156118e6576040517f08c379a00000000000000000000000000000000000000000000000000000000081526004016118dd90612ec8565b60405180910390fd5b60016004846040516118f89190612ab1565b908152602001604051809103902060020160008282546119189190612ee8565b9250508190555060018160020160008282546119349190612ee8565b9250508190555080600101339080600181540180825580915050600190039060005260206000200160009091909190916101000a81548173ffffffffffffffffffffffffffffffffffffffff021916908373ffffffffffffffffffffffffffffffffffffffff16021790555060018160040160003373ffffffffffffffffffffffffffffffffffffffff1673ffffffffffffffffffffffffffffffffffffffff16815260200190815260200160002060006101000a81548160ff021916908315150217905550505050565b6000600482604051611a119190612ab1565b9081526020016040518091039020600201549050919050565b611a348282611ad2565b15611a74576040517f08c379a0000000000000000000000000000000000000000000000000000000008152600401611a6b90612f68565b60405180910390fd5b60018260000160008373ffffffffffffffffffffffffffffffffffffffff1673ffffffffffffffffffffffffffffffffffffffff16815260200190815260200160002060006101000a81548160ff0219169083151502179055505050565b60008073ffffffffffffffffffffffffffffffffffffffff168273ffffffffffffffffffffffffffffffffffffffff1603611b42576040517f08c379a0000000000000000000000000000000000000000000000000000000008152600401611b3990612ffa565b60405180910390fd5b8260000160008373ffffffffffffffffffffffffffffffffffffffff1673ffffffffffffffffffffffffffffffffffffffff16815260200190815260200160002060009054906101000a900460ff16905092915050565b6040518060a00160405280600073ffffffffffffffffffffffffffffffffffffffff1681526020016060815260200160008019168152602001600081526020016000151581525090565b60405180606001604052806060815260200160608152602001600081525090565b600081519050919050565b600082825260208201905092915050565b6000819050602082019050919050565b600073ffffffffffffffffffffffffffffffffffffffff82169050919050565b6000611c5b82611c30565b9050919050565b611c6b81611c50565b82525050565b600081519050919050565b600082825260208201905092915050565b60005b83811015611cab578082015181840152602081019050611c90565b60008484015250505050565b6000601f19601f8301169050919050565b6000611cd382611c71565b611cdd8185611c7c565b9350611ced818560208601611c8d565b611cf681611cb7565b840191505092915050565b6000819050919050565b611d1481611d01565b82525050565b6000819050919050565b611d2d81611d1a565b82525050565b60008115159050919050565b611d4881611d33565b82525050565b600060a083016000830151611d666000860182611c62565b5060208301518482036020860152611d7e8282611cc8565b9150506040830151611d936040860182611d0b565b506060830151611da66060860182611d24565b506080830151611db96080860182611d3f565b508091505092915050565b6000611dd08383611d4e565b905092915050565b6000602082019050919050565b6000611df082611c04565b611dfa8185611c0f565b935083602082028501611e0c85611c20565b8060005b85811015611e485784840389528151611e298582611dc4565b9450611e3483611dd8565b925060208a01995050600181019050611e10565b50829750879550505050505092915050565b60006020820190508181036000830152611e748184611de5565b905092915050565b600081519050919050565b600082825260208201905092915050565b6000819050602082019050919050565b60006060830160008301518482036000860152611ec58282611cc8565b91505060208301518482036020860152611edf8282611cc8565b9150506040830151611ef46040860182611d24565b508091505092915050565b6000611f0b8383611ea8565b905092915050565b6000602082019050919050565b6000611f2b82611e7c565b611f358185611e87565b935083602082028501611f4785611e98565b8060005b85811015611f835784840389528151611f648582611eff565b9450611f6f83611f13565b925060208a01995050600181019050611f4b565b50829750879550505050505092915050565b60006020820190508181036000830152611faf8184611f20565b905092915050565b6000604051905090565b600080fd5b600080fd5b600080fd5b600080fd5b7f4e487b7100000000000000000000000000000000000000000000000000000000600052604160045260246000fd5b61200d82611cb7565b810181811067ffffffffffffffff8211171561202c5761202b611fd5565b5b80604052505050565b600061203f611fb7565b905061204b8282612004565b919050565b600067ffffffffffffffff82111561206b5761206a611fd5565b5b61207482611cb7565b9050602081019050919050565b82818337600083830152505050565b60006120a361209e84612050565b612035565b9050828152602081018484840111156120bf576120be611fd0565b5b6120ca848285612081565b509392505050565b600082601f8301126120e7576120e6611fcb565b5b81356120f7848260208601612090565b91505092915050565b6000806040838503121561211757612116611fc1565b5b600083013567ffffffffffffffff81111561213557612134611fc6565b5b612141858286016120d2565b925050602083013567ffffffffffffffff81111561216257612161611fc6565b5b61216e858286016120d2565b9150509250929050565b61218181611d1a565b811461218c57600080fd5b50565b60008135905061219e81612178565b92915050565b6000602082840312156121ba576121b9611fc1565b5b60006121c88482850161218f565b91505092915050565b600082825260208201905092915050565b60006121ed82611c71565b6121f781856121d1565b9350612207818560208601611c8d565b61221081611cb7565b840191505092915050565b61222481611d1a565b82525050565b6000606082019050818103600083015261224481866121e2565b9050818103602083015261225881856121e2565b9050612267604083018461221b565b949350505050565b60006020828403121561228557612284611fc1565b5b600082013567ffffffffffffffff8111156122a3576122a2611fc6565b5b6122af848285016120d2565b91505092915050565b600081519050919050565b600082825260208201905092915050565b6000819050602082019050919050565b60006122f08383611c62565b60208301905092915050565b6000602082019050919050565b6000612314826122b8565b61231e81856122c3565b9350612329836122d4565b8060005b8381101561235a57815161234188826122e4565b975061234c836122fc565b92505060018101905061232d565b5085935050505092915050565b600060608201905081810360008301526123818186611f20565b905081810360208301526123958185612309565b90506123a4604083018461221b565b949350505050565b6123b581611c50565b81146123c057600080fd5b50565b6000813590506123d2816123ac565b92915050565b6000602082840312156123ee576123ed611fc1565b5b60006123fc848285016123c3565b91505092915050565b600060a08301600083015161241d6000860182611c62565b50602083015184820360208601526124358282611cc8565b915050604083015161244a6040860182611d0b565b50606083015161245d6060860182611d24565b5060808301516124706080860182611d3f565b508091505092915050565b600060208201905081810360008301526124958184612405565b905092915050565b600060408201905081810360008301526124b781856121e2565b90506124c6602083018461221b565b9392505050565b6124d681611d33565b82525050565b60006020820190506124f160008301846124cd565b92915050565b6000806000606084860312156125105761250f611fc1565b5b600084013567ffffffffffffffff81111561252e5761252d611fc6565b5b61253a868287016120d2565b935050602084013567ffffffffffffffff81111561255b5761255a611fc6565b5b612567868287016120d2565b925050604084013567ffffffffffffffff81111561258857612587611fc6565b5b612594868287016120d2565b9150509250925092565b6000819050919050565b6125b18161259e565b82525050565b60006020820190506125cc60008301846125a8565b92915050565b60006020820190506125e7600083018461221b565b92915050565b7f4e487b7100000000000000000000000000000000000000000000000000000000600052603260045260246000fd5b7f4e487b7100000000000000000000000000000000000000000000000000000000600052602260045260246000fd5b6000600282049050600182168061266357607f821691505b6020821081036126765761267561261c565b5b50919050565b7f4e487b7100000000000000000000000000000000000000000000000000000000600052601160045260246000fd5b60006126b682611d1a565b91507fffffffffffffffffffffffffffffffffffffffffffffffffffffffffffffffff82036126e8576126e761267c565b5b600182019050919050565b7f536573696f6e20696e69636961646120636f6d6f2061646d696e69737472616460008201527f6f72000000000000000000000000000000000000000000000000000000000000602082015250565b600061274f6022836121d1565b915061275a826126f3565b604082019050919050565b6000602082019050818103600083015261277e81612742565b9050919050565b7f416c7265616479206578697374696e6720757365720000000000000000000000600082015250565b60006127bb6015836121d1565b91506127c682612785565b602082019050919050565b600060208201905081810360008301526127ea816127ae565b9050919050565b60008190508160005260206000209050919050565b60006020601f8301049050919050565b60008160020a8302905092915050565b6000600883026128567fffffffffffffffffffffffffffffffffffffffffffffffffffffffffffffffff82612816565b6128608683612816565b95508019841693508086168417925050509392505050565b6000819050919050565b600061289d61289861289384611d1a565b612878565b611d1a565b9050919050565b6000819050919050565b6128b783612882565b6128cb6128c3826128a4565b848454612826565b825550505050565b600090565b6128e06128d3565b6128eb8184846128ae565b505050565b5b8181101561290f576129046000826128d8565b6001810190506128f1565b5050565b601f82111561295457612925816127f1565b61292e84612806565b8101602085101561293d578190505b61295161294985612806565b8301826128f0565b50505b505050565b60008160020a8304905092915050565b600061297a60001984600802612959565b1980831691505092915050565b60006129938383612969565b9150826002028217905092915050565b6129ac82611c71565b67ffffffffffffffff8111156129c5576129c4611fd5565b5b6129cf825461264b565b6129da828285612913565b600060209050601f831160018114612a0d57600084156129fb578287015190505b612a058582612987565b865550612a6d565b601f198416612a1b866127f1565b60005b82811015612a4357848901518255600182019150602085019450602081019050612a1e565b86831015612a605784890151612a5c601f891682612969565b8355505b6001600288020188555050505b505050505050565b600081905092915050565b6000612a8b82611c71565b612a958185612a75565b9350612aa5818560208601611c8d565b80840191505092915050565b6000612abd8284612a80565b915081905092915050565b7f6f6e6c792061646d696e2063616e2061646420456c656374696f6e0000000000600082015250565b6000612afe601b836121d1565b9150612b0982612ac8565b602082019050919050565b60006020820190508181036000830152612b2d81612af1565b9050919050565b60008154612b418161264b565b612b4b8186612a75565b94506001821660008114612b665760018114612b7b57612bae565b60ff1983168652811515820286019350612bae565b612b84856127f1565b60005b83811015612ba657815481890152600182019150602081019050612b87565b838801955050505b50505092915050565b6000612bc38284612b34565b915081905092915050565b7f436f6e6e65637465642061732041646d696e0000000000000000000000000000600082015250565b6000612c046012836121d1565b9150612c0f82612bce565b602082019050919050565b60006020820190508181036000830152612c3381612bf7565b9050919050565b7f4e6f20736520656e6375656e747261207265676973747261646f000000000000600082015250565b6000612c70601a836121d1565b9150612c7b82612c3a565b602082019050919050565b60006020820190508181036000830152612c9f81612c63565b9050919050565b7f6f6e6c792061646d696e2063616e206164642043616e64696461746573000000600082015250565b6000612cdc601d836121d1565b9150612ce782612ca6565b602082019050919050565b60006020820190508181036000830152612d0b81612ccf565b9050919050565b600081549050612d218161264b565b9050919050565b818103612d36575050612e0e565b612d3f82612d12565b67ffffffffffffffff811115612d5857612d57611fd5565b5b612d62825461264b565b612d6d828285612913565b6000601f831160018114612d9c5760008415612d8a578287015490505b612d948582612987565b865550612e07565b601f198416612daa876127f1565b9650612db5866127f1565b60005b82811015612ddd57848901548255600182019150600185019450602081019050612db8565b86831015612dfa5784890154612df6601f891682612969565b8355505b6001600288020188555050505b5050505050505b565b7f5573756172696f206e6f207265676973747261646f0000000000000000000000600082015250565b6000612e466015836121d1565b9150612e5182612e10565b602082019050919050565b60006020820190508181036000830152612e7581612e39565b9050919050565b7f557374656420796120686120766f7461646f0000000000000000000000000000600082015250565b6000612eb26012836121d1565b9150612ebd82612e7c565b602082019050919050565b60006020820190508181036000830152612ee181612ea5565b9050919050565b6000612ef382611d1a565b9150612efe83611d1a565b9250828201905080821115612f1657612f1561267c565b5b92915050565b7f526f6c65733a206163636f756e7420616c72656164792068617320726f6c6500600082015250565b6000612f52601f836121d1565b9150612f5d82612f1c565b602082019050919050565b60006020820190508181036000830152612f8181612f45565b9050919050565b7f526f6c65733a206163636f756e7420697320746865207a65726f20616464726560008201527f7373000000000000000000000000000000000000000000000000000000000000602082015250565b6000612fe46022836121d1565b9150612fef82612f88565b604082019050919050565b6000602082019050818103600083015261301381612fd7565b905091905056fea2646970667358221220f251d9161229b0b5d8f46daeedf03458bac6d892f1a58d0cd2c4f725a044b0be64736f6c63430008110033",
  "immutableReferences": {},
  "source": "// SPDX-License-Identifier: MIT\r\npragma solidity >=0.4.22 <0.9.0;\r\n\r\nimport './Roles.sol';\r\n\r\n\r\ncontract Voting {\r\n\r\n    using Roles for Roles.Role;\r\n\r\n    Roles.Role private adminRole;\r\n    Roles.Role private userRole;\r\n\r\n\r\n    struct User {\r\n        address key;\r\n        string nationalId;\r\n        bytes32 pwd;\r\n        uint age;\r\n        bool isActive;\r\n    }\r\n\r\n    struct Candidate {\r\n        string id;\r\n        string name;\r\n        uint voteCount;\r\n    }\r\n\r\n    struct Election {\r\n        string id;\r\n        address[] voters;\r\n        uint votes;\r\n        Candidate[] candidates;\r\n        mapping(address => bool) Voters;\r\n    }\r\n\r\n\r\n\r\n    mapping(string => Election) ElectionsMap;\r\n    mapping(address => User) UsersMap;\r\n    mapping(string => Candidate) CandidatesMap;\r\n    // mapping(address => bool) Voters;\r\n\r\n    Candidate[] public candidates;\r\n    Election[] public elections;\r\n    address[] private users;\r\n    address adminId;\r\n    string adminPwd;\r\n\r\n    constructor() {\r\n        adminId = msg.sender;\r\n        adminRole.add(adminId);\r\n        adminPwd = \"admin\";\r\n    }\r\n\r\n    function isAdmin() public view returns (bool){\r\n        return adminRole.has(msg.sender);\r\n    }\r\n\r\n    function isVoter() public view returns (bool){\r\n        return userRole.has(msg.sender);\r\n    }\r\n\r\n\r\n    function adminLogin(string memory pwd) public view returns (int){\r\n        if (keccak256(abi.encodePacked(pwd)) == keccak256(abi.encodePacked(adminPwd))) {\r\n            return 1;\r\n        }\r\n        else {\r\n            return 0;\r\n        }\r\n    }\r\n\r\n    function addElection(string memory id) public {\r\n        require(adminRole.has(msg.sender), \"only admin can add Election\");\r\n        Election storage election = ElectionsMap[id];\r\n        election.id = id;\r\n        election.votes = 0;\r\n\r\n    }\r\n\r\n    function getElection(string memory eId) public view returns (Candidate[] memory, address[] memory, uint){\r\n        Election storage election = ElectionsMap[eId];\r\n\r\n        return (election.candidates, election.voters, election.votes);\r\n    }\r\n\r\n    function addUser(string memory nationalId, string memory pwd) public {\r\n        if (adminRole.has(msg.sender)) revert(\"Sesion iniciada como administrador\");\r\n        if (userRole.has(msg.sender)) revert(\"Already existing user\");\r\n\r\n        User storage user = UsersMap[msg.sender];\r\n        user.nationalId = nationalId;\r\n        user.key = msg.sender;\r\n          // store the pwd in hashed form to avoid storing it in plain text\r\n        user.pwd = keccak256(abi.encodePacked(pwd));\r\n        user.isActive = false;\r\n\r\n        users.push(msg.sender);\r\n\r\n        userRole.add(msg.sender);\r\n    }\r\n\r\n    function verifyUser(address _voter) public {\r\n        UsersMap[_voter].isActive = true;\r\n    }\r\n\r\n    function login(string memory nationalId, string memory pwd) public view returns (User memory){\r\n        require(!adminRole.has(msg.sender), \"Connected as Admin\");\r\n        require(userRole.has(msg.sender), \"No se encuentra registrado\");\r\n\r\n        User memory user = UsersMap[msg.sender];\r\n\r\n        if (keccak256(abi.encodePacked(user.nationalId)) ==\r\n        keccak256(abi.encodePacked(nationalId)) &&\r\n            keccak256(abi.encodePacked(pwd)) == user.pwd)\r\n            return user;\r\n        return UsersMap[address(0)];\r\n    }\r\n\r\n    function getUsers() public view returns (User[] memory){\r\n        User[] memory _users = new User[](users.length);\r\n        for (uint i = 0; i < users.length; i++) {\r\n            _users[i] = UsersMap[users[i]];\r\n        }\r\n        return _users;\r\n    }\r\n\r\n    function addCandidate(string memory id, string memory name, string memory eId) public {\r\n        require(adminRole.has(msg.sender), \"only admin can add Candidates\");\r\n        Candidate storage candidate = CandidatesMap[id];\r\n        candidate.id = id;\r\n        candidate.name = name;\r\n        candidate.voteCount = 0;\r\n\r\n        Election storage election = ElectionsMap[eId];\r\n        election.candidates.push(candidate);\r\n\r\n        candidates.push(candidate);\r\n    }\r\n\r\n    function getCandidates() public view returns (Candidate[] memory){\r\n        return candidates;\r\n    }\r\n\r\n    function getCandidateVotes(string memory id) public view returns (uint){\r\n        return CandidatesMap[id].voteCount;\r\n    }\r\n\r\n    function vote(string memory cId, string memory eId ) public {\r\n  \r\n        require(userRole.has(msg.sender), \"Usuario no registrado\");\r\n        Election storage election = ElectionsMap[eId];\r\n        require(!election.Voters[msg.sender], \"Usted ya ha votado\");\r\n        CandidatesMap[cId].voteCount += 1;\r\n        election.votes += 1;\r\n        election.voters.push(msg.sender);\r\n        election.Voters[msg.sender] = true;\r\n\r\n        \r\n    }\r\n\r\n    function getResult(string memory _eId) public view returns (Candidate[] memory)  {\r\n        Election storage _election = ElectionsMap[_eId];\r\n        Candidate[] memory _candidates = new Candidate[](_election.candidates.length);\r\n\r\n        for (uint i = 0; i < _election.candidates.length; i++) {\r\n            _candidates[i] = CandidatesMap[_election.candidates[i].id];\r\n        }\r\n\r\n        return _candidates;\r\n    }\r\n\r\n    // function to verify age of voter and return true if age is greater than 18 years old and false if not \r\n    function verifyAge(uint age) public pure returns (bool){\r\n        if (age >= 18) {\r\n            \r\n             return true;\r\n        }\r\n        else {\r\n             return false;\r\n        }\r\n    }\r\n\r\n\r\n    function hasVotingEnded(uint votingEndTime) public view returns (bool) {\r\n       if (block.timestamp >= votingEndTime) {\r\n           return true;\r\n       } else {\r\n           return false;\r\n       }\r\n    }\r\n\r\n}",
  "sourcePath": "C:\\Users\\clope\\OneDrive\\Documentos\\Programacion\\TesisV1.0\\evotingec\\Client\\contracts\\Voting.sol",
  "compiler": {
    "name": "solc",
    "version": "0.8.17+commit.8df45f5f.Emscripten.clang"
  },
  "schemaVersion": "3.4.14",
  "updatedAt": "2023-11-13T01:48:06.024Z",
  "networkType": "ethereum",
  "devdoc": {
    "kind": "dev",
    "methods": {},
    "version": 1
  },
  "userdoc": {
    "kind": "user",
    "methods": {},
    "version": 1
  }
}